:100000000C9468000C9490000C9490000C94900058
:100010000C9490000C9490000C9490000C94900020
:100020000C9490000C9490000C9490000C94900010
:100030000C9490000C9490000C9490000C94900000
:100040000C944B030C9490000C94BB030C949503FC
:100050000C9490000C9490000C9490000C949000E0
:100060000C9490000C9490006364696E6F707375CB
:1000700078585B0000000000240027002A000000E0
:100080000000250028002B000000000023002600AF
:10009000290004040404040404040202020202020B
:1000A000030303030303010204081020408001023C
:1000B00004081020010204081020000000080002BB
:1000C0000100000304070000000000000000ED0331
:1000D00011241FBECFEFD8E0DEBFCDBF11E0A0E0FE
:1000E000B1E0E0EDFCE102C005900D92A233B10752
:1000F000D9F721E0A2E3B1E001C01D92A83EB2070A
:10010000E1F710E0C8E6D0E004C02197FE010E94AC
:100110001307C736D107C9F70E9428040C94660E4E
:100120000C9400006FEF70E080E090E00895833061
:1001300081F028F4813099F08230A1F00895873061
:10014000A9F08830B9F08430D1F4809180008F7D9F
:1001500003C0809180008F7780938000089584B5DC
:100160008F7702C084B58F7D84BD08958091B000E3
:100170008F7703C08091B0008F7D8093B000089589
:100180001F93CF93DF93282F30E0F901E654FF4F00
:100190008491F901EA55FF4FD491F901EE56FF4FD2
:1001A000C491CC23C1F0162F81110E949700EC2F2F
:1001B000F0E0EE0FFF1FE258FF4FA591B4919FB7FB
:1001C000F894111104C08C91D095D82302C0EC9101
:1001D000DE2BDC939FBFDF91CF911F910895CF93CA
:1001E000DF9390E0FC01EA55FF4F2491FC01EE56AD
:1001F000FF4F8491882361F190E0880F991FFC01E3
:10020000EC58FF4FC591D491FC01E258FF4FA591E6
:10021000B491611109C09FB7F89488812095822319
:100220008883EC912E230BC0623061F49FB7F89461
:100230008881322F309583238883EC912E2B2C9349
:100240009FBF06C08FB7F894E8812E2B28838FBFFD
:10025000DF91CF9108953FB7F89480913D0190913F
:100260003E01A0913F01B091400126B5A89B05C079
:100270002F3F19F00196A11DB11D3FBFBA2FA92F25
:10028000982F8827820F911DA11DB11DBC01CD01A2
:1002900042E0660F771F881F991F4A95D1F708958E
:1002A0008F929F92AF92BF92CF92DF92EF92FF9286
:1002B0006B017C010E942B014B015C01C114D10434
:1002C000E104F104F1F00E942B01DC01CB0188195B
:1002D0009909AA09BB09883E9340A105B10570F3AD
:1002E00021E0C21AD108E108F10888EE880E83E007
:1002F000981EA11CB11CC114D104E104F10419F72A
:10030000DDCFFF90EF90DF90CF90BF90AF909F90A8
:100310008F900895CF92DF92EF92FF920F931F93E9
:10032000CF93DF936C017A018B01C0E0D0E0CE1552
:10033000DF0581F0D8016D918D01D601ED91FC9121
:100340000190F081E02DC6010995892B11F02196CD
:10035000EECF7E01C701DF91CF911F910F91FF90EA
:10036000EF90DF90CF900895089580E090E0089599
:10037000FC01538D448D252F30E0842F90E0821BAB
:10038000930B541710F0CF96089501970895FC0130
:10039000918D828D981761F0828DDF01A80FB11DBC
:1003A0005D968C91928D9F5F9F73928F90E00895E0
:1003B0008FEF9FEF0895FC01918D828D981731F09A
:1003C000828DE80FF11D858D90E008958FEF9FEFEE
:1003D0000895FC01918D228D892F90E0805C9F4FC4
:1003E000821B91098F739927089581E491E00E94FF
:1003F000E90121E0892B09F420E0822F0895FC0116
:10040000848DDF01A80FB11DA35ABF4F2C91848D9D
:1004100090E001968F739927848FA689B7892C93D2
:10042000A089B1898C91837080648C93938D848D25
:10043000981306C00288F389E02D80818F7D808328
:100440000895EF92FF920F931F93CF93DF93EC01E8
:1004500081E0888F9B8D8C8D981305C0E889F98980
:10046000808185FD26C0F62E0B8D10E00F5F1F4F9B
:100470000F731127E02E8C8DE8120CC00FB607FC0D
:10048000FACFE889F989808185FFF5CFCE010E94F6
:10049000FF01F1CF8B8DFE01E80FF11DE35AFF4FF5
:1004A000F0829FB7F8940B8FEA89FB898081806284
:1004B0000AC09FB7F894EE89FF896083E889F989BB
:1004C00080818370806480839FBF81E090E0DF91B2
:1004D000CF911F910F91FF90EF900895CF93DF93ED
:1004E000EC01888D8823C9F0EA89FB89808185FD2C
:1004F00005C0A889B9898C9186FD0FC00FB607FC8D
:10050000F5CF808185FFF2CFA889B9898C9185FFCD
:10051000EDCFCE010E94FF01E7CFDF91CF9108958B
:1005200080E090E0892B29F00E94F50181110C9464
:1005300000000895EF92FF920F931F93CF93DF93E4
:10054000082F162FC0E0D0E0EE24E394F12CB70181
:100550000C2E02C0759567950A94E2F7802F0E94D1
:10056000C00061E0812F0E94C00060E0812F0E94E6
:10057000C0002196C830D10551F7DF91CF911F916E
:100580000F91FF90EF9008958F929F92AF92BF923C
:10059000CF92DF92EF92FF920F931F93CF93DF934F
:1005A000A62E07E010E0B12CC82FD0E0CE01865473
:1005B0009F4F7C01FE01EA55FF4F6F01CE56DF4F82
:1005C00061E08A2D0E94C000F7018491F6019490A9
:1005D000FE018490882091F081110E949700E82DFF
:1005E000F0E0EE0FFF1FE857FF4FA591B4918C91FB
:1005F000982231E009F430E0832F02C080E090E0DF
:10060000002E01C0880F0A94EAF7B82A60E08A2D0C
:100610000E94C0000150110998F68B2DDF91CF91F7
:100620001F910F91FF90EF90DF90CF90BF90AF9010
:100630009F908F900895CF93DF93CEEDD1E060E04F
:100640008C810E94C0006A8188810E94C4026A81F4
:1006500088810E94C4026A8188810E949A026A810C
:1006600088810E949A026A8188810E94C4026A81FC
:1006700088810E94C4026A8188810E949A026A81EC
:1006800088810E949A0261E08C81DF91CF910C9465
:10069000C0000E943A081F920F920FB60F921124C9
:1006A0002F933F938F939F93AF93BF938091390183
:1006B00090913A01A0913B01B0913C0130913801F9
:1006C00023E0230F2D3720F40196A11DB11D05C095
:1006D00026E8230F0296A11DB11D209338018093B7
:1006E000390190933A01A0933B01B0933C01809172
:1006F0003D0190913E01A0913F01B09140010196D2
:10070000A11DB11D80933D0190933E01A0933F0137
:10071000B0934001BF91AF919F918F913F912F91E5
:100720000F900FBE0F901F9018951F920F920FB64B
:100730000F9211242F933F934F935F936F937F9367
:100740008F939F93AF93BF93EF93FF9381E491E0D7
:100750000E94FF01FF91EF91BF91AF919F918F9107
:100760007F916F915F914F913F912F910F900FBEAD
:100770000F901F9018951F920F920FB60F92112491
:100780002F938F939F93EF93FF93E0915101F091FB
:1007900052018081E0915701F091580182FD12C011
:1007A000908180915A018F5F8F7320915B01821736
:1007B00051F0E0915A01F0E0EF5BFE4F958F80938E
:1007C0005A0101C08081FF91EF919F918F912F91EC
:1007D0000F900FBE0F901F901895E1E4F1E0138287
:1007E000128288EE93E0A0E0B0E084839583A68334
:1007F000B7838AE091E09183808385EC90E09587D0
:10080000848784EC90E09787868780EC90E0918BDA
:10081000808B81EC90E0938B828B82EC90E0958BC7
:10082000848B86EC90E0978B868B118E128E138EC4
:10083000148EEEEDF1E089E090E0918380838AE010
:1008400090E0938382838BE090E095838483089586
:10085000CF93DF93CDB7DEB7A9970FB6F894DEBF7D
:100860000FBECDBF789484B5826084BD84B58160AD
:1008700084BD85B5826085BD85B5816085BD80916B
:100880006E00816080936E001092810080918100E3
:1008900082608093810080918100816080938100DB
:1008A000809180008160809380008091B10084609D
:1008B0008093B1008091B00081608093B0008091FE
:1008C0007A00846080937A0080917A0082608093BD
:1008D0007A0080917A00816080937A0080917A001A
:1008E000806880937A001092C10060E08091DE0100
:1008F0000E94EF0061E08091E0010E94EF0061E062
:100900008091E2010E94EF0061E08091E2010E948B
:10091000C00064E670E080E090E00E9450010E9418
:100920001B03E0915101F091520182E08083E0913C
:100930004D01F0914E011082E0914F01F091500174
:100940008AE8808310925901E0915501F091560197
:1009500086E08083E0915301F091540180818061B1
:100960008083E0915301F0915401808188608083FD
:10097000E0915301F0915401808180688083E0917F
:100980005301F091540180818F7D808361E082E08A
:100990000E94EF0060E082E00E94C0000E941B0302
:1009A0008E010F5F1F4F98E1E92E91E0F92E25E3AC
:1009B000B22E30E2C32E31E0D32E60E08091E2010E
:1009C0000E94C0006091E0018091DE010E94C4029B
:1009D000982E6091E0018091DE010E94C402A82E51
:1009E00061E08091E2010E94C0006A2D70E07929E7
:1009F00077FF02C0695F7F4F83E0759567958A95A1
:100A0000E1F7072E000C880B990B0E941A0620E0D4
:100A100030E040E85DE30E947E060E94E2057093AC
:100A2000370160933601109235011092340181E450
:100A300091E00E94E901892B09F4BBC082E390E0B8
:100A40000E941907909333018093320165E070E0B2
:100A500080E090E00E94500181E491E00E94E90171
:100A6000892B09F440C081E491E00E94C7014091C4
:100A700032015091330120913401309135018B3393
:100A800031F5FA01E20FF31F108210923501109236
:100A900034011F930F93FF92EF925F934F930E9445
:100AA0006A080F900F900F900F900F900F90898110
:100AB0009A81C59789F281E491E00E94E901892B2E
:100AC00009F477C081E491E00E94C701F4CFB90135
:100AD0006F5F7F4F7093350160933401FA01E20F2D
:100AE000F31F8083B9CF2091340130913501121664
:100AF00013060CF05EC08091320190913301A90180
:100B00004F5F5F4F5093350140933401FC01E20F7A
:100B1000F31F1082141615060CF04BC06BE171E048
:100B20000E943F08892B09F044C0A09036015090E4
:100B30003701A9A661E082E00E94C000CE0189963B
:100B40000E949200962E872E782E692E6CE370E01C
:100B500080E090E00E9450015F92AF926F927F928E
:100B60008F929F921F92BF921F9281E08F93DF928C
:100B7000CF921F930F930E944808F8010190002024
:100B8000E9F73197AF01401B510BB80181E491E0C7
:100B90000E948A016CE370E080E090E00E945001C6
:100BA00060E082E00E94C0000FB6F894DEBF0FBE86
:100BB000CDBF80913201909133010E94B1070E9414
:100BC0009002FBCE0E94E9056894B1110C9478065E
:100BD00008950E945D0688F09F5798F0B92F9927D5
:100BE000B751B0F0E1F0660F771F881F991F1AF018
:100BF000BA95C9F714C0B13091F00E947706B1E000
:100C000008950C947706672F782F8827B85F39F0FE
:100C1000B93FCCF3869577956795B395D9F73EF4B0
:100C200090958095709561957F4F8F4F9F4F089558
:100C3000E89409C097FB3EF4909580957095619576
:100C40007F4F8F4F9F4F9923A9F0F92F96E9BB272C
:100C50009395F695879577956795B795F111F8CFA8
:100C6000FAF4BB0F11F460FF1BC06F5F7F4F8F4F13
:100C70009F4F16C0882311F096E911C0772321F009
:100C80009EE8872F762F05C0662371F096E8862FA1
:100C900070E060E02AF09A95660F771F881FDAF7F8
:100CA000880F9695879597F9089557FD9058440FAA
:100CB000551F59F05F3F71F04795880F97FB991FBB
:100CC00061F09F3F79F08795089512161306140678
:100CD000551FF2CF4695F1DF08C016161706180605
:100CE000991FF1CF86957105610508940895E894E0
:100CF000BB2766277727CB0197F908950E949106B5
:100D00000C9402070E94F40638F00E94FB0620F0C3
:100D1000952311F00C94EB060C94F10611240C941D
:100D200078060E94550670F3959FC1F3950F50E029
:100D3000551F629FF001729FBB27F00DB11D639F8D
:100D4000AA27F00DB11DAA1F649F6627B00DA11D33
:100D5000661F829F2227B00DA11D621F739FB00DD9
:100D6000A11D621F839FA00D611D221F749F332749
:100D7000A00D611D231F849F600D211D822F762FE2
:100D80006A2F11249F5750409AF0F1F088234AF0BF
:100D9000EE0FFF1FBB1F661F771F881F915050402B
:100DA000A9F79E3F510580F00C94EB060C94780651
:100DB0005F3FE4F3983ED4F3869577956795B795B2
:100DC000F795E7959F5FC1F7FE2B880F911D9695CC
:100DD000879597F9089597F99F6780E870E060E03C
:100DE00008959FEF80EC089500240A9416161706C4
:100DF00018060906089500240A941216130614060C
:100E000005060895092E0394000C11F4882352F06E
:100E1000BB0F40F4BF2B11F460FF04C06F5F7F4F26
:100E20008F4F9F4F0895EE0FFF1F0590F491E02D17
:100E300009940F931F93CF93DF938230910510F4A1
:100E400082E090E0E091E601F091E70120E030E0FF
:100E5000A0E0B0E0309719F1408151810281138107
:100E600048175907C8F08417950769F4109731F0AF
:100E700012960C93129713961C9327C00093E601C9
:100E80001093E70122C02115310519F042175307CD
:100E900018F49A01BD01EF01DF01F801DBCF211544
:100EA0003105F9F0281B390B2430310580F48A8193
:100EB0009B816115710521F0FB019383828304C03E
:100EC0009093E7018093E601FE01329644C0FE0153
:100ED000E20FF31F819391932250310939832883C4
:100EE0003AC02091E4013091E501232B41F4209197
:100EF0000201309103013093E5012093E401209138
:100F00000001309101012115310541F42DB73EB7A3
:100F10004091040150910501241B350BE091E4013F
:100F2000F091E501E217F307A0F42E1B3F0B281701
:100F3000390778F0AC014E5F5F4F2417350748F052
:100F40004E0F5F1F5093E5014093E401819391930D
:100F500002C0E0E0F0E0CF01DF91CF911F910F914F
:100F60000895CF93DF93009709F481C0FC01329775
:100F700013821282A091E601B091E701109781F4EB
:100F800020813181820F931F2091E4013091E5018E
:100F90002817390751F5F093E501E093E40167C0A4
:100FA000ED0120E030E0CE17DF0740F44A815B819D
:100FB0009E0141155105F1F0EA01F5CFD383C283BB
:100FC00040815181840F951FC817D90759F4888132
:100FD0009981840F951F0296918380838A819B81DA
:100FE000938382832115310529F4F093E701E0937F
:100FF000E6013DC0E901FB83EA8349915991C40FA1
:10100000D51FEC17FD0761F480819181840F951F36
:101010000296E90199838883828193819B838A83E5
:10102000E0E0F0E012968D919C911397009719F0F3
:10103000FD01DC01F7CF8D919C9111979D012E5FF1
:101040003F4F820F931F2091E4013091E501281753
:10105000390769F4309729F41092E7011092E601FC
:1010600002C013821282B093E501A093E401DF91E4
:10107000CF91089581E090E0F8940C94660EFB0106
:10108000DC018D91019080190110D9F3990B08951D
:10109000AEE0B0E0EEE4F8E00C943D0E0D891E8960
:1010A00086E08C831A8309838FEF9FE79E838D836D
:1010B000AE01475E5F4F6F89788DCE0101960E9429
:1010C0008308EF81F885E00FF11F10822E96E4E08F
:1010D0000C94590EAEE0B0E0E0E7F8E00C943F0E5F
:1010E00085E08C838B899C899A838983AE01495ED4
:1010F0005F4F6D897E89CE0101960E94000C2E966D
:10110000E2E00C945B0EABE0B0E0E9E8F8E00C94B0
:101110002F0E6C017B018A01FC01178216828381EC
:1011200081FFCCC1CE0101963C01F6019381F7010C
:1011300093FD859193FF81917F01882309F4BAC1C2
:10114000853239F493FD859193FF81917F0185323A
:1011500029F4B60190E00E94790DE7CF912C212C63
:10116000312CFFE1F315D8F08B3279F038F480326E
:1011700079F08332A1F4232D20611DC08D3261F0FE
:10118000803369F4232D216016C0832D8260382EB0
:10119000E32DE4603E2E2AC0F32DF8601DC037FC1D
:1011A0002DC020ED280F2A3040F08E32B9F436FCE5
:1011B00081C1232D2064322E19C036FE06C08AE07C
:1011C000989E200D1124922E11C0EAE02E9E200D33
:1011D0001124222EF32DF0623F2E08C08C3621F40C
:1011E000832D8068382E02C0883641F4F70193FDC4
:1011F000859193FF81917F018111B3CF982F9F7DBE
:101200009554933028F40C5F1F4F9FE399830DC0D2
:10121000833631F0833771F0833509F059C021C02E
:10122000F801808189830E5F1F4F88248394912C5D
:10123000530113C02801F2E04F0E511CF801A080A9
:10124000B18036FE03C0692D70E002C06FEF7FEF02
:10125000C5010E94300D4C018201F32DFF773F2E16
:1012600016C0280122E0420E511CF801A080B18076
:1012700036FE03C0692D70E002C06FEF7FEFC5013D
:101280000E94250D4C01F32DF0683F2E820133FCA6
:101290001BC0822D90E088169906B0F4B60180E25A
:1012A00090E00E94790D2A94F4CFF50137FC8591E6
:1012B00037FE81915F01B60190E00E94790D211007
:1012C0002A9421E0821A91088114910471F7E8C0F0
:1012D000843611F0893641F5F80137FE07C0608188
:1012E0007181828193810C5F1F4F08C06081718181
:1012F000072E000C880B990B0E5F1F4FF32DFF7606
:101300003F2E97FF09C090958095709561957F4F0E
:101310008F4F9F4FF0683F2E2AE030E0A3010E94DC
:10132000CE0D882E861845C0853731F4232D2F7EAB
:10133000B22E2AE030E025C0932D997FB92E8F364A
:10134000C1F018F4883579F0B5C0803719F08837C6
:1013500021F0B0C0E92FE061BE2EB4FE0DC0FB2D20
:10136000F460BF2E09C034FE0AC0292F2660B22EB9
:1013700006C028E030E005C020E130E002C020E1F6
:1013800032E0F801B7FE07C06081718182819381EC
:101390000C5F1F4F06C06081718180E090E00E5F9E
:1013A0001F4FA3010E94CE0D882E8618FB2DFF77BC
:1013B0003F2E36FE0DC0232D2E7FA22E891458F409
:1013C00034FE0BC032FC09C0832D8E7EA82E05C0D2
:1013D000B82CA32C03C0B82C01C0B92CA4FE0FC09C
:1013E000FE01E80DF11D8081803321F49A2D997E54
:1013F000A92E09C0A2FE06C0B394B39404C08A2DDE
:10140000867809F0B394A3FC11C0A0FE06C0B21404
:1014100088F4280C922C9B180EC0B21460F4B6010C
:1014200080E290E00E94790DB394F7CFB21418F4E3
:101430002B1802C0982C212CA4FE10C0B60180E30A
:1014400090E00E94790DA2FE17C0A1FC03C088E7BE
:1014500090E002C088E590E0B6010CC08A2D867845
:1014600059F0A1FE02C08BE201C080E2A7FC8DE230
:10147000B60190E00E94790D891438F4B60180E33A
:1014800090E00E94790D9A94F7CF8A94F301E80DC9
:10149000F11D8081B60190E00E94790D8110F5CF99
:1014A000222009F442CEB60180E290E00E94790D3C
:1014B0002A94F6CFF6018681978102C08FEF9FEFC5
:1014C0002B96E2E10C944B0E20FD09C0FC0123FD9C
:1014D00005C022FF02C07383628351834083089555
:1014E00044FD17C046FD17C0AB01BC01DA01FB018A
:1014F000AA0FBB1FEE1FFF1F1094D1F74A0F5B1FEF
:101500006E1F7F1FCB01BA01660F771F881F991FBF
:1015100009C033E001C034E0660F771F881F991FB0
:101520003150D1F7620F711D811D911D08950F93E8
:101530001F93CF93DF938C01C8010E943B0DEC01F8
:1015400097FD08C00E94110D892BB1F7B801CE019B
:101550000E94B50DCE01DF91CF911F910F9108959B
:101560008F929F92AF92BF92EF92FF920F931F9331
:10157000CF93DF938C01D62F7A01B22E0E943B0DC0
:101580009C0133272B32310531F02D32310561F4C6
:101590008B2D8068B82ED15011F480E068C0C8014E
:1015A0000E943B0D97FDF9CFCB2DCD7F2B2D2073C6
:1015B00009F58033F9F4AA24AA94AD0E09F443C0C6
:1015C000C8010E943B0D97FD3EC09C012F7D332733
:1015D0002835310549F4C264D250A9F1C8010E94EE
:1015E0003B0D97FF07C02FC0B6FE02C0C26001C00E
:1015F000C261DA2D812C912C540120ED280F283066
:1016000080F0C4FF04C0B8010E94B50D19C02A3093
:1016100040F0C6FFF8CF2F7D3FEE320F363098F7FF
:1016200027504C2FC501B4010E94700A4B015C0188
:10163000C260D15059F0C8010E943B0D97FFDDCF29
:10164000C1FD04C0AACF812C912C5401C7FF08C052
:10165000B094A09490948094811C911CA11CB11C06
:101660002C2FB501A401C7010E94640A81E0DF911B
:10167000CF911F910F91FF90EF90BF90AF909F90EF
:101680008F900895A0E2B0E0E8E4FBE00C94320E05
:101690005C01962E7A01F9018E010F5F1F4F6801E0
:1016A00080E2D8011D928A95E9F7D50113968C90B6
:1016B00080E090E0612C712C30E061E070E083FC10
:1016C000259183FE21918F01522E211103C080E0CC
:1016D00090E092C02E3511F4009751F1432F50E065
:1016E000481759073CF42D3559F12D3219F477205C
:1016F00009F103C0772009F46AC0452D4695469547
:101700004695D601A40FB11D452D47708B0102C02F
:10171000000F111F4A95E2F7A8015C91452B4C93ED
:10172000651459F0561410F45394E7CF5A94E5CF4A
:1017300031E004C07724739401C0712C0196BFCFAF
:10174000772019F08E8180628E83311103C0882446
:10175000839417C0F6019E012F5D3F4F80818095D5
:1017600081932E173F07D1F7F2CFE114F10429F04E
:10177000D7018C93F70131967F019A94812C99209F
:10178000F9F0C5010E943B0D97FD18C0FC01FF2731
:1017900023E0F595E7952A95E1F7EC0DFD1D2081F5
:1017A00030E0AC014770552702C0359527954A9522
:1017B000E2F720FDDACFB5010E94B50D811087CF89
:1017C000E114F10411F0D7011C92C80115C0422F99
:1017D000469546954695D601A40FB11D422F4770F8
:1017E0008B0102C0000F111F4A95E2F7A8015C911E
:1017F000452B4C93622EA2CFA096EFE00C944E0E98
:10180000A0E0B0E0E6E0FCE00C94320E6C01EB01ED
:101810005A01FC0117821682512CF601E380FE0169
:10182000E3FC8591E3FE8191182FEF01882309F4F1
:10183000EEC090E00E94110D892B21F0C6010E949C
:10184000970AEBCF153241F4FE01E3FC1591E3FE5C
:101850001191EF01153281F4C6010E943B0D97FDF5
:10186000D4C0412F50E09C01332724173507A9F23B
:10187000B6010E94B50DCBC01A3239F4E3FC1591C4
:10188000E3FE1191EF0101E001C000E0F12C20ED39
:10189000210F2A3080F402606F2D70E080E090E02C
:1018A00040E20E94700AF62EFE01E3FC1591E3FE71
:1018B0001191EF01ECCF01FF03C0F11003C0A7C0ED
:1018C000FF24FA94183619F01C3651F010C0FE01AE
:1018D000E3FC1591E3FE1191EF01183641F4086025
:1018E0000460FE01E3FC1591E3FE1191EF01112369
:1018F00009F48DC0612F70E088E690E00E941A0D17
:10190000892B09F484C000FD07C0F5018080918017
:10191000C50102965C0102C0812C912C1E3651F447
:10192000F6014681578160E070E0202FC4010E94DB
:10193000640A73CF1336A9F401FD02C0FF24F394A7
:10194000C6010E943B0D97FD60C08114910429F0EF
:10195000F4018083C40101964C01FA94F110F0CF98
:1019600050C01B3559F49E01A4016F2DC6010E9481
:10197000420BEC01892B09F044C03EC0C6010E9415
:10198000970A97FD42C01F3661F128F4143639F1E9
:10199000193651F128C0133771F0153701F123C002
:1019A0008114910429F0F4016082C40101964C0174
:1019B000FA94FF2071F0C6010E943B0D3C0197FD97
:1019C00008C00E94110D892B59F3B601C3010E9472
:1019D000B50D81149104A9F0F401108212C00062C7
:1019E00003C0006101C00064202FA4016F2DC60157
:1019F0000E94B00A811105C0F6018381807329F429
:101A000006C000FD0ACF539408CF552019F0852D4C
:101A100090E002C08FEF9FEFCDB7DEB7EFE00C9400
:101A20004E0E91110C942C0E803219F08950855075
:101A3000C8F70895FC010590061621F00020D9F79B
:101A4000C00108953197CF010895FC0105906150C0
:101A500070400110D8F7809590958E0F9F1F0895C4
:101A6000FC016150704001900110D8F7809590956D
:101A70008E0F9F1F0895CF93DF93EC012B8120FFE2
:101A800033C026FF0AC02F7B2B838E819F81019656
:101A90009F838E838A8190E029C022FF0FC0E88156
:101AA000F9818081082E000C990B009719F42062AF
:101AB0002B831AC03196F983E8830EC0EA85FB8533
:101AC000099597FF09C02B81019611F080E201C0B2
:101AD00080E1822B8B8308C02E813F812F5F3F4F97
:101AE0003F832E83992702C08FEF9FEFDF91CF9125
:101AF00008950F931F93CF93DF93FB01238121FD63
:101B000003C08FEF9FEF2CC022FF16C04681578184
:101B1000248135814217530744F4A081B1819D018E
:101B20002F5F3F4F318320838C93268137812F5F36
:101B30003F4F3783268314C08B01EC01FB010084E7
:101B4000F185E02D0995892BE1F6D80116968D9146
:101B50009C911797019617969C938E931697CE019A
:101B6000DF91CF911F910F910895FB01238120FFF9
:101B700012C026FD10C08F3F3FEF930761F08283B4
:101B80002F7D2064238326813781215031093783BB
:101B90002683992708958FEF9FEF0895FA01AA27CA
:101BA000283051F1203181F1E8946F936E7F6E5FA0
:101BB0007F4F8F4F9F4FAF4FB1E03ED0B4E03CD04E
:101BC000670F781F891F9A1FA11D680F791F8A1F31
:101BD000911DA11D6A0F711D811D911DA11D20D098
:101BE00009F468943F912AE0269F11243019305D52
:101BF0003193DEF6CF010895462F4770405D419343
:101C0000B3E00FD0C9F7F6CF462F4F70405D4A338F
:101C100018F0495D31FD4052419302D0A9F7EACF57
:101C2000B4E0A6959795879577956795BA95C9F786
:101C300000976105710508959B01AC010A2E069479
:101C40005795479537952795BA95C9F7620F731F32
:101C5000841F951FA01D08959927882708952F9206
:101C60003F924F925F926F927F928F929F92AF922C
:101C7000BF92CF92DF92EF92FF920F931F93CF9379
:101C8000DF93CDB7DEB7CA1BDB0B0FB6F894DEBF10
:101C90000FBECDBF09942A88398848885F846E8436
:101CA0007D848C849B84AA84B984C884DF80EE8080
:101CB000FD800C811B81AA81B981CE0FD11D0FB689
:101CC000F894DEBF0FBECDBFED010895F894FFCFAD
:101CD0000000E80180000000000021028A01B80134
:101CE0006E02E901C701DB012564004769766500E2
:101CF00025643B25643A256C782125642C25642ACB
:021D00000000E1
:107E0000112484B714BE81FFF0D085E080938100F7
:107E100082E08093C00088E18093C10086E0809377
:107E2000C20080E18093C4008EE0C9D0259A86E02C
:107E300020E33CEF91E0309385002093840096BBD3
:107E4000B09BFECF1D9AA8958150A9F7CC24DD24C4
:107E500088248394B5E0AB2EA1E19A2EF3E0BF2EE7
:107E6000A2D0813461F49FD0082FAFD0023811F036
:107E7000013811F484E001C083E08DD089C08234E0
:107E800011F484E103C0853419F485E0A6D080C0E4
:107E9000853579F488D0E82EFF2485D0082F10E0AE
:107EA000102F00270E291F29000F111F8ED06801E7
:107EB0006FC0863521F484E090D080E0DECF843638
:107EC00009F040C070D06FD0082F6DD080E0C81688
:107ED00080E7D80618F4F601B7BEE895C0E0D1E017
:107EE00062D089930C17E1F7F0E0CF16F0E7DF06D8
:107EF00018F0F601B7BEE89568D007B600FCFDCFD4
:107F0000A601A0E0B1E02C9130E011968C91119780
:107F100090E0982F8827822B932B1296FA010C0160
:107F200087BEE89511244E5F5F4FF1E0A038BF0790
:107F300051F7F601A7BEE89507B600FCFDCF97BE46
:107F4000E89526C08437B1F42ED02DD0F82E2BD052
:107F50003CD0F601EF2C8F010F5F1F4F84911BD097
:107F6000EA94F801C1F70894C11CD11CFA94CF0C13
:107F7000D11C0EC0853739F428D08EE10CD085E9AC
:107F80000AD08FE07ACF813511F488E018D01DD067
:107F900080E101D065CF982F8091C00085FFFCCF94
:107FA0009093C60008958091C00087FFFCCF809118
:107FB000C00084FD01C0A8958091C6000895E0E648
:107FC000F0E098E1908380830895EDDF803219F02E
:107FD00088E0F5DFFFCF84E1DECF1F93182FE3DFCA
:107FE0001150E9F7F2DF1F91089580E0E8DFEE27F6
:047FF000FF270994CA
:027FFE00040479
:0400000300007E007B
:00000001FF
