:1000000001C1000011C100000FC100000DC10000BE
:100010000BC1000009C1000007C1000005C10000BC
:1000200003C1000001C10000FFC00000FDC00000CE
:10003000FBC00000F9C00000F7C00000F5C00000E0
:10004000F3C00000F1C00000EFC00000EDC00000F0
:10005000EBC00000E9C00000E7C00000A2C1000042
:10006000E3C00000E1C00000DFC00000DDC0000010
:10007000DBC00000D9C00000D7C00000D5C0000020
:10008000D3C00000D1C00000CFC00000CDC0000030
:10009000CBC00000C9C00000C7C00000C5C0000040
:1000A000C3C00000C1C00000BFC00000BDC0000050
:1000B000BBC00000B9C00000B7C00000B5C0000060
:1000C000B3C00000B1C00000AFC00000ADC0000070
:1000D000ABC00000A9C00000A7C00000A5C0000080
:1000E000A3C00000000020002300260029002C00EF
:1000F0002F00320000010000030106010901000089
:100100002100240027002A002D00300033000101C7
:100110000000040107010A01000022002500280058
:100120002B002E00310034000201000005010801FF
:100130000B0105050505070508080808020202026B
:100140000A0A080804040404010101010101010173
:100150000303030303030303040707070C0C0C0C3E
:100160000C0C0C0C02020202060606060606060627
:100170000B0B0B0B0B0B0B0B0102102020080810B4
:100180002040102040800201020108040201010207
:1001900004081020408080402010080402018004E0
:1001A000020180402010080402010804020101023B
:1001B0000408102040800102040810204080000044
:1001C0000A0B02090C0D0E080703040100000000D1
:1001D000000000000000000000000000000000001F
:1001E00000000000000000000000121110000000DC
:1001F00000000000000000000000000000000000FF
:100200000000000011241FBECFEFD1E2DEBFCDBF42
:1002100000E00CBF22E0A0E0B2E001C01D92A930D6
:10022000B207E1F708D1CBC1EBCE8150823108F0A3
:1002300059C0E82FF0E08827E05EFE4F8F4FB7C12E
:1002400040014401320138013C01720147014D0176
:10025000510157015B015F016501690172016D0187
:1002600073017701809180008F77809380000895DB
:10027000809180008F7DF9CF80918000877FF5CFBE
:1002800084B58F7784BD089584B58F7DFBCF809131
:10029000B0008F778093B00008958091B0008F7D7B
:1002A000F9CF809190008F7780939000089580918E
:1002B00090008F7DF9CF80919000877FF5CF80915E
:1002C000A0008F778093A00008958091A0008F7D7B
:1002D000F9CF8091A000877FF5CF809120018F77A3
:1002E000809320010895809120018F7DF9CF809126
:1002F0002001877FF5CFCF93DF93282F30E0F901DE
:10030000E254FE4F8491F901E858FE4FD491F9016F
:10031000EE5CFE4FC491CC2381F0811186DFEC2F7F
:10032000F0E0EE0FFF1FE85EFE4FA591B4918FB78E
:10033000F894EC91DE2BDC938FBFDF91CF91089581
:10034000CF93DF9390E0FC01E858FE4F24918E5C40
:100350009E4FFC0184918823D1F090E0880F991F73
:10036000FC01E250FF4FA591B491FC01E85EFE4F05
:10037000C591D49161110EC09FB7F8948C91E22F72
:10038000E0958E238C932881E223E8839FBFDF9141
:10039000CF9108958FB7F894EC91E22BEC938FBF37
:1003A000F6CF1F920F920FB60F9211242F933F9307
:1003B0008F939F93AF93BF93809105029091060214
:1003C000A0910702B09108023091040223E0230FAC
:1003D0002D3758F50196A11DB11D2093040280937D
:1003E000050290930602A0930702B0930802809141
:1003F000000290910102A0910202B09103020196C5
:10040000A11DB11D8093000290930102A0930202EE
:10041000B0930302BF91AF919F918F913F912F9124
:100420000F900FBE0F901F90189526E8230F02968D
:10043000A11DB11DD2CF789484B5826084BD84B5EE
:10044000816084BD85B5826085BD85B5816085BDCF
:1004500080916E00816080936E0010928100809187
:10046000810082608093810080918100816080930F
:100470008100809180008160809380008091B10034
:1004800084608093B1008091B00081608093B0005F
:1004900080919100826080939100809191008160B1
:1004A0008093910080919000816080939000809172
:1004B000A10082608093A1008091A100816080935F
:1004C000A1008091A00081608093A0008091210113
:1004D00082608093210180912101816080932101BC
:1004E0008091200181608093200180917A00846056
:1004F00080937A0080917A00826080937A00809164
:100500007A00816080937A0080917A00806880937D
:100510007A001092C10060E089E112DF89E1EBDE30
:1005200060E08BE10DDF8BE1E6DE61E081E308DF77
:1005300061E080E305DF61E08FE202DF61E08EE2EF
:10054000FFDE61E08DE2FCDE61E08CE2F9DE61E07D
:100550008BE2F6DE61E08AE2F3DEC7EDD1E001E98D
:1005600011E09BE4E92E91E0F92E20E0C22E20E07C
:10057000D22EFE018491F801A490F701B490B1103D
:1005800008C080E3B8DEC114D10499F30E940000D2
:10059000F0CF81114ADEEB2DF0E0EE0FFF1FEC51A2
:1005A000FF4FA591B4918C91A82259F3ECCFEE0F97
:1005B000FF1F881F8BBF0790F691E02D1994F894C8
:0205C000FFCF6B
:00000001FF
