:020000020000FC
:0200000022C01C
:1000440025C00FEF0DBF01E20EBF0FEF00930A01B1
:1000540000930701002700930B010093080104B9E2
:100064002B9A2D9A0A9A1298F894002700938000EC
:100074000DE00093810002E000936F000DE3009314
:10008400890008E00093880078942AC00027009330
:10009400080100930B0100FC03D001FC10D018955B
:1000A4003395353041F00027052B062B00930B01C7
:1000B4006695550F08950EEF002255270895439530
:1000C400493051F0709308017695769500277017A2
:1000D40009F0089570E408950DEF0022772708953C
:1000E4001B9B07C01D9B0BC0FBCF129A0ED012980E
:1000F400F7CF01E0002A332760E851E0F6CF02E0B1
:10010400002A442700E8702FF0CF00E014EC29E027
:0A011400015010402040E1F708956B
:00000001FF
