:1000000001C100001EC100001CC100001AC1000097
:1000100018C1000016C1000014C1000012C1000088
:1000200010C100000EC100000CC100000AC1000098
:1000300008C1000006C1000004C1000002C10000A8
:1000400000C100008DC20000FCC00000FAC000002A
:10005000F8C00000F6C00000F4C0000037C2000085
:10006000F0C00000EEC00000ECC00000EAC00000DC
:10007000E8C00000E6C00000E4C00000E2C00000EC
:10008000E0C00000DEC00000DCC00000DAC00000FC
:10009000D8C00000D6C00000D4C00000D2C000000C
:1000A000D0C00000CEC00000CCC00000CAC000001C
:1000B000C8C00000C6C00000C4C00000C2C000002C
:1000C000C0C00000BEC00000BCC00000BAC000003C
:1000D000B8C00000B6C00000B4C00000B2C000004C
:1000E000B0C0000000002100240027002A002D00DD
:1000F0003000330001010000040107010A01000083
:100100002200250028002B002E00310034000201BF
:100110000000050108010B0100002000230026005B
:1001200029002C002F00320000010000030106010D
:10013000090105050505070508080808020202026D
:100140000A0A080804040404010101010101010173
:100150000303030303030303040707070C0C0C0C3E
:100160000C0C0C0C02020202060606060606060627
:100170000B0B0B0B0B0B0B0B0102102020080810B4
:100180002040102040800201020108040201010207
:1001900004081020408080402010080402018004E0
:1001A000020180402010080402010804020101023B
:1001B0000408102040800102040810204080000044
:1001C0000A0B02090C0D0E080703040100000000D1
:1001D000000000000000000000000000000000001F
:1001E00000000000000000000000121110000000DC
:1001F00000000000000000000000000000000000FF
:100200000000000011241FBECFEFD1E2DEBFCDBF42
:1002100000E00CBF12E0A0E0B2E0EAEFF9E000E09D
:100220000BBF02C007900D92A032B107D9F722E0B0
:10023000A0E2B2E001C01D92AD32B207E1F7EAD20E
:10024000DAC3DECE8150823108F059C0E82FF0E0E9
:100250008827E35DFE4F8F4FC6C34D0151013F011B
:10026000450149017F0154015A015E0164016801A1
:100270006C01720176017F017A0180018401809115
:1002800080008F77809380000895809180008F7D1B
:10029000F9CF80918000877FF5CF84B58F7784BDBB
:1002A000089584B58F7DFBCF8091B0008F778093C8
:1002B000B00008958091B0008F7DF9CF80919000BB
:1002C0008F77809390000895809190008F7DF9CF73
:1002D00080919000877FF5CF8091A0008F778093E9
:1002E000A00008958091A0008F7DF9CF8091A0009B
:1002F000877FF5CF809120018F778093200108952B
:10030000809120018F7DF9CF80912001877FF5CFEB
:10031000CF93DF93282F30E0F901E254FE4F849110
:10032000F901E858FE4FD491F901EE5CFE4FC491FB
:10033000CC2399F0811186DFEC2FF0E0EE0FFF1F48
:10034000E85EFE4FA591B491EC91ED2381E090E041
:1003500009F480E0DF91CF91089580E090E0FACF3A
:100360001F93CF93DF93282F30E0F901E254FE4F23
:100370008491F901E858FE4FD491F901EE5CFE4FEB
:10038000C491CC23A1F0162F81115CDFEC2FF0E09B
:10039000EE0FFF1FE250FF4FA591B4918FB7F89475
:1003A000EC91111108C0D095DE23DC938FBFDF9153
:1003B000CF911F910895DE2BF8CFCF93DF9390E07C
:1003C000FC01E858FE4F24918E5C9E4FFC01849105
:1003D0008823D1F090E0880F991FFC01EC51FF4F6A
:1003E000A591B491FC01E250FF4FC591D4916230C8
:1003F00071F49FB7F8943C91822F809583238C935E
:10040000E8812E2B28839FBFDF91CF9108958FB76E
:10041000F894EC912E2B2C938FBFF6CF3FB7F89426
:100420008091290290912A02A0912B02B0912C0276
:1004300026B5A89B05C02F3F19F00196A11DB11D3F
:100440003FBFBA2FA92F982F8827BC01CD01620F7B
:10045000711D811D911D42E0660F771F881F991F36
:100460004A95D1F708958F929F92AF92BF92CF9203
:10047000DF92EF92FF92D2DF4B015C0184E6C82E3F
:10048000D12CE12CF12CCADF681979098A099B0962
:10049000683E734081059105B0F321E0C21AD1088E
:1004A000E108F10888EE880E83E0981EA11CB11CBB
:1004B000C114D104E104F10431F7FF90EF90DF9013
:1004C000CF90BF90AF909F908F9008951F920F9202
:1004D0000FB60F9211242F933F938F939F93AF9357
:1004E000BF938091250290912602A0912702B0919E
:1004F00028023091240223E0230F2D3758F501966E
:10050000A11DB11D20932402809325029093260201
:10051000A0932702B09328028091290290912A0289
:10052000A0912B02B0912C020196A11DB11D8093C8
:10053000290290932A02A0932B02B0932C02BF9120
:10054000AF919F918F913F912F910F900FBE0F9080
:100550001F90189526E8230F0296A11DB11DD2CF3A
:100560001F920F920FB60F9211240BB60F922F937A
:100570003F934F935F936F937F938F939F93AF932B
:10058000BF93EF93FF9380912202909123020997EA
:1005900039F460E085E4E4DE109223021092220236
:1005A0008091220290912302089761F460E083E435
:1005B000D7DE61E085E4D4DE89E090E09093230209
:1005C000809322028091220290912302079761F486
:1005D00060E081E4C5DE61E083E4C2DE88E090E0B3
:1005E0009093230280932202809122029091230211
:1005F000069761F460E08FE3B3DE61E081E4B0DE92
:1006000087E090E09093230280932202809122025F
:1006100090912302059761F460E084E4A1DE61E03B
:100620008FE39EDE86E090E0909323028093220287
:100630008091220290912302049761F460E082E4A9
:100640008FDE61E084E48CDE85E090E0909323020D
:10065000809322028091220290912302039761F4F9
:1006600060E080E47DDE61E082E47ADE84E090E0B8
:100670009093230280932202809122029091230280
:10068000029761F460E08EE36BDE61E080E468DE97
:1006900083E090E0909323028093220280912202D3
:1006A00090912302019749F461E08EE359DE82E0E4
:1006B00090E09093230280932202809120029091F7
:1006C0002102099739F460E08EE24ADE109221029D
:1006D000109220028091200290912102089761F4EB
:1006E00060E08DE23DDE61E08EE23ADE89E090E09E
:1006F0009093210280932002809120029091210208
:10070000079761F460E08FE22BDE61E08DE228DE86
:1007100088E090E090932102809320028091200253
:1007200090912102069761F460E08CE219DE61E0AD
:100730008FE216DE87E090E0909321028093200202
:100740008091200290912102059761F460E080E39E
:1007500007DE61E08CE204DE86E090E09093210207
:10076000809320028091200290912102049761F4ED
:1007700060E08BE2F5DD61E080E3F2DD85E090E0B2
:100780009093210280932002809120029091210277
:10079000039761F460E081E3E3DD61E08BE2E0DD9B
:1007A00084E090E0909321028093200280912002C7
:1007B00090912102029761F460E08AE2D1DD61E06C
:1007C00081E3CEDD83E090E09093210280932002CC
:1007D0008091200290912102019749F461E08AE220
:1007E000BFDD82E090E09093210280932002FF9190
:1007F000EF91BF91AF919F918F917F916F915F9199
:100800004F913F912F910F900BBE0F900FBE0F9005
:100810001F901895789484B5826084BD84B58160FA
:1008200084BD85B5826085BD85B5816085BD8091BB
:100830006E00816080936E00109281008091810033
:10084000826080938100809181008160809381002B
:10085000809180008160809380008091B1008460ED
:100860008093B1008091B00081608093B00080914E
:1008700091008260809391008091910081608093CB
:100880009100809190008160809390008091A10000
:1008900082608093A1008091A10081608093A1007B
:1008A0008091A00081608093A000809121018260EE
:1008B00080932101809121018160809321018091A9
:1008C000200181608093200180917A008460809370
:1008D0007A0080917A00826080937A0080917A0019
:1008E000816080937A0080917A00806880937A009A
:1008F0001092C100F89480E980938000809181007B
:100900008860809381008091810081608093810064
:100910008091810084608093810082E080936F00E9
:100920008DE38093890088E080938800789461E06B
:1009300088E143DD60E088E113DD62E089E13DDDCF
:1009400062E08BE13ADDC0E1D2E080E0E82E82E0B7
:10095000F82E67018E01F80180810E5F1F4F60E065
:10096000FFDCF6018081F2E0CF0ED11C60E0F8DC04
:1009700082E00032180779F78881229661E01DDD58
:10098000F7018081F2E0EF0EF11C61E016DD82E0FC
:10099000C032D80789F700E010E0C1E0D0E089E17B
:1009A000B7DC892B59F4D0932302C093220261E073
:1009B00088E1D6DC58DD60E088E1D2DC8BE1A8DCA0
:1009C000892B59F4D0932102C093200261E088E181
:1009D000C7DC49DD60E088E1C3DC01151105F9F2EF
:1009E0000E940000DCCFEE0FFF1F881F8BBF079017
:0A09F000F691E02D1994F894FFCF62
:1009FA002A002B002C002D002E002F003000310081
:100A0A003E003F00400041004200430044004500D0
:00000001FF
