:100000005CC100008AC1000088C1000086C10000F8
:1000100084C1000082C1000080C100007EC10000D8
:100020007CC100007AC1000078C1000076C10000E8
:1000300074C1000072C1000070C100006EC10000F8
:100040006CC1000096C5000068C1000066C10000D8
:1000500064C1000062C1000060C1000040C5000032
:100060005CC100005AC1000058C1000056C1000028
:1000700054C1000052C1000050C100004EC1000038
:100080004CC100004AC1000048C1000046C1000048
:1000900044C1000042C1000040C100003EC1000058
:1000A0003CC100003AC1000038C1000036C1000068
:1000B00034C1000032C1000030C100002EC1000078
:1000C0002CC100002AC1000028C1000026C1000088
:1000D00024C1000022C1000020C100001EC1000098
:1000E0001CC10000303000303100303200303300AD
:1000F00030340030350030360030370030380030D2
:1001000039003130003131003132003133003134C7
:1001100000313500313600313700313800313900D7
:1001200032300032310032320032330032340032A9
:100130003500323600323700323800323900333081
:1001400000333100333200333300333400333500B1
:10015000333600333700333800333900343000345D
:100160003100343200343300343400343500343656
:100170000034370034380034390035300035310070
:10018000353200353300353400353500353600352D
:1001900037003538003539000000210024002700E1
:1001A0002A002D0030003300010100000401070186
:1001B0000A0100002200250028002B002E0031003B
:1001C000340002010000050108010B0100002000BD
:1001D0002300260029002C002F003200000100001F
:1001E00003010601090105050505070508080808BA
:1001F000020202020A0A08080404040401010101BF
:1002000001010101030303030303030304070707B9
:100210000C0C0C0C0C0C0C0C02020202060606065E
:10022000060606060B0B0B0B0B0B0B0B010210202B
:10023000200808102040102040800201020108041C
:1002400002010102040810204080804020100804B0
:100250000201800402018040201008040201080409
:10026000020101020408102040800102040810204D
:10027000408000000A0B02090C0D0E080703040160
:10028000000000000000000000000000000000006E
:10029000000000000000000000000000000012113B
:1002A000100000000000000000000000000000003E
:1002B0000000000000000000E80B11241FBECFEF7B
:1002C000D1E2DEBFCDBF00E00CBF12E0A0E0B2E0A3
:1002D000E0E2F9E100E00BBF02C007900D92AE39F9
:1002E000B107D9F723E0AEE9B2E001C01D92A13514
:1002F000B207E1F711E0CDE5D1E000E006C02197BB
:100300000109802FFE010E94860CCC35D10780E0C8
:100310000807A9F796D50C948E0C72CE96E0899FAB
:10032000D0011124A653BD4F90967C936E935F9796
:1003300091E091969C939197E0913703F091380367
:1003400090913603992339F0309751F0811108C00C
:100350008091E6021994309719F05C968C91FACF4F
:100360000895CF92DF92EF92FF920F931F9396E042
:10037000899FF0011124E653FD4F11A2278D30A172
:100380002130310549F178F02230310509F44FC0B0
:100390002330310509F450C01F910F91FF90EF9069
:1003A000DF90CF9008956623B9F361E070E0B6DF87
:1003B0002FB7F8948091C6029091C702A091C8020D
:1003C000B091C9022FBF8093220390932303A0937F
:1003D0002403B0932503E0CF9FB7F894C090C602E2
:1003E000D090C702E090C802F090C9029FBF009170
:1003F0002203109123032091240330912503C01A76
:10040000D10AE20AF30A009134031091350330E077
:1004100020E00C151D052E053F0548F462E070E054
:100420001F910F91FF90EF90DF90CF9077CF6111E8
:10043000B3CF63E070E0F4CF70E060E0F1CF8150C3
:10044000823108F05AC0E82FF0E08827E55DFD4FC3
:100450008F4F0C94860C4B024F023D024302470221
:100460007D02520258025C02620266026A02700257
:1004700074027D0278027E028202809180008F7772
:10048000809380000895809180008F7DF9CF8091C6
:100490008000877FF5CF84B58F7784BD089584B5BC
:1004A0008F7DFBCF8091B0008F778093B00008954F
:1004B0008091B0008F7DF9CF809190008F778093ED
:1004C00090000895809190008F7DF9CF80919000E9
:1004D000877FF5CF8091A0008F778093A00008954B
:1004E0008091A0008F7DF9CF8091A000877FF5CF0C
:1004F000809120018F7780932001089580912001C1
:100500008F7DF9CF80912001877FF5CFCF93DF9347
:10051000282F30E0F901EE58FD4F8491F901E45D98
:10052000FD4FD491F901EA51FE4FC491CC2399F0CB
:10053000811185DFEC2FF0E0EE0FFF1FE453FE4F3B
:10054000A591B491EC91ED2381E090E009F480E075
:10055000DF91CF91089580E090E0FACF1F93CF9381
:10056000DF93282F30E0F901EE58FD4F8491F90117
:10057000E45DFD4FD491F901EA51FE4FC491CC23C3
:10058000A1F0162F81115BDFEC2FF0E0EE0FFF1FC3
:10059000EE54FE4FA591B4918FB7F894EC911111E0
:1005A00008C0D095DE23DC938FBFDF91CF911F91E0
:1005B0000895DE2BF8CFCF93DF9390E0FC01E45D4C
:1005C000FD4F24918A519E4FFC0184918823C9F0EC
:1005D00090E0880F991FFC01E856FE4FA591B49159
:1005E000FC01EE54FE4FC591D49161110DC09FB72F
:1005F000F8948C91209582238C93888128232883DA
:100600009FBFDF91CF910895623051F49FB7F89466
:100610003C91822F809583238C93E8812E2BEFCF02
:100620008FB7F894EC912E2B2C938FBFEACF3FB766
:10063000F8948091C2029091C302A091C402B0913B
:10064000C50226B5A89B05C02F3F19F00196A11D34
:10065000B11D3FBFBA2FA92F982F8827BC01CD010C
:10066000620F711D811D911D42E0660F771F881F6B
:10067000991F4A95D1F708958F929F92AF92BF929A
:10068000CF92DF92EF92FF924B015C01D0DF6B01C2
:100690007C01CDDF6C197D098E099F09683E73408E
:1006A00081059105B0F321E0821A9108A108B108F3
:1006B00088EEC80E83E0D81EE11CF11C8114910461
:1006C000A104B10431F7FF90EF90DF90CF90BF907D
:1006D000AF909F908F900895862F642F6CCF862FB8
:1006E000642F3CCF862F12CFAF92BF92CF92DF9272
:1006F000EF92FF920F931F93CF93DF936C017B01D7
:100700008B01040F151FEB015E01AE18BF08C01767
:10071000D10759F06991D601ED91FC910190F081DA
:10072000E02DC6011995892B79F7C501DF91CF918D
:100730001F910F91FF90EF90DF90CF90BF90AF90FF
:100740000895089590E080E00895FC010190002054
:10075000E9F73197AF01481B590BBC0189E393E0DE
:10076000C3CFCF93DF93EC0160E08E81F7DE61E0D1
:100770008E81F4DE60E08E81F1DE8BE891E00197FE
:10078000F1F7DF91CF910895CF92DF92EF92FF9230
:100790000F931F93CF93DF936C017C0187E0E80EEA
:1007A000F11CD0E0C0E0062F10E0B8010C2E02C012
:1007B000759567950A94E2F76170F70181917F0161
:1007C000CDDE2196C430D10581F7C601DF91CF91EE
:1007D0001F910F91FF90EF90DF90CF90C2CFCF92FB
:1007E000DF92EF92FF920F931F93CF93DF93EC0171
:1007F000F62E642F8C81B2DE8D818F3F11F060E088
:10080000ADDE0F2D10E08F8584FF23C06E0187E0E1
:10081000C80ED11CF12CE12CB8010E2C02C075952C
:1008200067950A94E2F76170F60181916F0196DE97
:10083000FFEFEF1AFF0A88E0E816F10469F7CE012E
:10084000DF91CF911F910F91FF90EF90DF90CF90AC
:1008500088CFB80184E0759567958A95E1F7CE0158
:1008600093DF6F2DCE01DF91CF911F910F91FF90FC
:10087000EF90DF90CF9088CF40E0682F89E393E03E
:10088000AECF81E0F9DF8BE39FE10197F1F70895A7
:10089000CF93DF93823029F490914803986090932E
:1008A000480380934C0310924D0380E480934E03E1
:1008B00080E180934F0380E58093500361E0809155
:1008C0003D0379DE80913E038F3F11F061E073DEDE
:1008D00061E080913F036FDEC9E3D3E09E012953BD
:1008E00033408091480384FD0AC084E090E0219663
:1008F000281739073CF461E08E815DDEEFCF88E098
:1009000090E0F5CF8BE39DE00197F1F760E08091F7
:100910003D0324DE60E080913F0320DE80913E03B2
:100920008F3F11F060E01ADE8091480384FD2CC0F7
:1009300063E089E393E028DFCBE4D6E4CE010197BE
:10094000F1F763E089E393E01FDF2197F1F763E0BC
:1009500089E393E019DF83E592E00197F1F762E024
:1009600089E393E011DF80914803806285DF84E0B2
:10097000809349038CE080DF84DF82E080934A0328
:1009800086E0DF91CF9178CF806276DF8BE496E4CA
:100990000197F1F78091480380626EDF83E592E072
:1009A0000197F1F780914803806266DFDCCF909178
:1009B0004C03691710F06FEF690FE62FF0E0E75C6A
:1009C000FC4F9489890F806857CF41E008DF81E0B0
:1009D00090E008958F929F92AF92BF92CF92DF9254
:1009E000EF92FF92CF93DF93CDB7DEB7A1970FB60B
:1009F000F894DEBF0FBECDBF6C01990FEE08FF0863
:100A0000F7FE3BC041E06DE289E393E0E8DE222798
:100A10003327A9012C193D094E095F0919A2CE01FE
:100A200081967C019AE0892E912CA12CB12CCA01CF
:100A3000B901A501940148D7605DF70162937F0178
:100A4000211531054105510591F790E080E030977F
:100A500011F0CF017ADE0196A1960FB6F894DEBFB1
:100A60000FBECDBFDF91CF91FF90EF90DF90CF9081
:100A7000BF90AF909F908F900895A701960119A203
:100A8000CE0181967C018AE0882E912CA12CB12C7C
:100A9000CA01B901A501940117D7605DF7016293FE
:100AA0007F01211531054105510591F790E080E066
:100AB000309791F2CF0149DECFCFCF93DF93EC0196
:100AC000FC01649141E089E393E089DEFE01319607
:100AD000649141E089E393E0DF91CF9180CE1F9252
:100AE0000F920FB60F9211242F933F938F939F93E2
:100AF000AF93BF938091C6029091C702A091C802A4
:100B0000B091C9023091C10223E0230F2D3758F56F
:100B10000196A11DB11D2093C1028093C60290933E
:100B2000C702A093C802B093C9028091C2029091FB
:100B3000C302A091C402B091C5020196A11DB11DCE
:100B40008093C2029093C302A093C402B093C502E3
:100B5000BF91AF919F918F913F912F910F900FBEB9
:100B60000F901F90189526E8230F0296A11DB11D26
:100B7000D2CF1F920F920FB60F9211240BB60F9285
:100B80002F933F934F935F936F937F938F939F9395
:100B9000AF93BF93EF93FF9380911C0290911D023E
:100BA000892B09F0A0C08091B0029091B102019709
:100BB0009093B1028093B0020196A9F48091B202A1
:100BC0009091B3022BE330E03093B1022093B00256
:100BD00001979093B3028093B20281E090E09093EA
:100BE000A1028093A0028091B2029091B30201967B
:100BF000C9F48091A0029091A102019799F480918B
:100C0000B4029091B50201979093B5028093B4021B
:100C10008BE390E09093B3028093B2021092A10212
:100C20001092A0028091B4029091B502019601F554
:100C300081E090E090931D0280931C021092B50217
:100C40001092B4021092B3021092B2021092B1024A
:100C50001092B0029093BF028093BE021092B9022C
:100C60001092B80261E080E0A2DE89E792E06DDDDB
:100C70008091B6029091B7020197A9F560E080E0FB
:100C800096DE89E892E061DD60E083E090DE20910D
:100C9000B4023091B502C901880F991F820F931FCA
:100CA0008C519F4F0ADF6AE389E393E08EDE209147
:100CB000B2023091B302C901880F991F820F931FAE
:100CC0008C519F4FFADE6AE389E393E07EDE209148
:100CD000B0023091B102C901880F991F820F931F92
:100CE0008C519F4FEADE80911A0290911B02892B52
:100CF00009F094C08091A2029091A3020197909371
:100D0000A3028093A2020196A9F480911802909107
:100D100019022BE330E03093A3022093A202019743
:100D2000909319028093180281E090E090939F02C3
:100D300080939E0280911802909119020196C9F445
:100D400080919E0290919F02019799F48091A40254
:100D50009091A50201979093A5028093A4028BE342
:100D600090E090931902809318021092A1021092C1
:100D7000A0028091A4029091A5020196A1F481E0C5
:100D800090E090931B0280931A029093BF0280938D
:100D9000BE021092A9021092A80261E080E007DE74
:100DA0008BE892E0D2DC8091A6029091A702019795
:100DB000A9F560E080E0FBDD8BE992E0C6DC60E055
:100DC00083E0F5DD2091A4023091A502C901880FCE
:100DD000991F820F931F8C519F4F6FDE6AE389E347
:100DE00093E0F3DD2091180230911902C901880FB8
:100DF000991F820F931F8C519F4F5FDE6AE389E337
:100E000093E0E3DD2091A2023091A302C901880F93
:100E1000991F820F931F8C519F4F4FDEFF91EF91CF
:100E2000BF91AF919F918F917F916F915F914F9102
:100E30003F912F910F900BBE0F900FBE0F901F9000
:100E40001895789484B5826084BD84B5816084BD32
:100E500085B5826085BD85B5816085BD80916E0058
:100E6000816080936E001092810080918100826089
:100E700080938100809181008160809381008091C6
:100E800080008160809380008091B10084608093B5
:100E9000B1008091B00081608093B000809191009A
:100EA0008260809391008091910081608093910095
:100EB000809190008160809390008091A100826079
:100EC0008093A1008091A10081608093A100809116
:100ED000A00081608093A0008091210182608093B6
:100EE0002101809121018160809321018091200165
:100EF00081608093200180917A00846080937A00E1
:100F000080917A00826080937A0080917A0081607B
:100F100080937A0080917A00806880937A001092A2
:100F2000C100F89480E980938000809181008860FE
:100F30008093810080918100816080938100809105
:100F4000810084608093810082E080936F0088E05C
:100F50009DE3909389008093880061E085E32BDB1B
:100F600060E085E3FBDA82E093DC789456E0452E7E
:100F700002E010E0C1E0D0E03AE0632E40E0242E31
:100F800040E0342E8091C002882359F061E085E36F
:100F9000E5DA64E670E080E090E06EDB60E085E337
:100FA000DDDA8091BE029091BF02019779F461E091
:100FB00085E3D4DA64EF71E080E090E05DDB60E02F
:100FC00085E3CCDA1092BF021092BE0281E08093DA
:100FD00036038FB7F8944091C6025091C7026091D2
:100FE000C8027091C9028FBF809126039091270398
:100FF000A0912803B0912903481B590B6A0B7B0B66
:101000008091320390913303B0E0A0E084179507FC
:10101000A607B70708F055C1F12C80913003F816E8
:1010200058F4E0912C03F0912D03EF0DF11D62E0D7
:101030008081C1DAF394F1CF712C8091310378165D
:1010400008F05FC0E72CF12CE0912E03F0912F0304
:10105000EE0DFF1D61E08081AEDAE0912E03F0918C
:101060002F03EE0DFF1D60E0808178DA81E090E0D3
:10107000A0E0B0E0072C04C0880F991FAA1FBB1F77
:101080000A94D2F75C016C01C094D094512C8091E9
:101090003003581608F5852C912CE0912C03F09123
:1010A0002D03E80DF91D808131DA94012C5F3F4F4B
:1010B000F901EE0FFF1FE653FD4F892B41F48081AC
:1010C00091818A299B29918380835394E0CF8081E9
:1010D00091818C219D21F7CFE0912E03F0912F0378
:1010E000EE0DFF1D61E0808139DA80912E03909131
:1010F0002F03E80EF91E60E0F70180815CDA73943B
:101100009CCF9AECC92E92E0D92E7601F701878DFB
:1011100090A1892B31F4148E2FEF3FEF368F258F5E
:1011200011A236E0E30EF11C86E093E08E159F05D8
:1011300069F7B12C80913003B81608F051C0A12C8A
:101140008B2C912C880C991CF401EE52FD4F4F0111
:1011500020913103A21608F041C0F4016081718131
:101160000A2C02C0769567950A94E2F7B29E900128
:1011700011242A0D311DEAECF2E080E0458D568DF8
:101180002417350709F422C38F5F36968A30B1F7EA
:1011900060FF22C0EAECF2E090E080E0448D411173
:1011A00016C0E0912A03F0912B03E20FF31F408158
:1011B000489EF001499EF00D1124E653FD4F448FE7
:1011C000368F258F10A2178E61E0CBD805C001960F
:1011D00036968A30910511F7A394BACFB394AACF6B
:1011E00080E0F60191A19111892FF6E0CF0ED11C7C
:1011F000EC14FD04B1F79FB7F8944091C6025091EA
:10120000C7026091C8027091C9029FBF4093260334
:10121000509327036093280370932903882309F4CC
:1012200050C08091EB02882309F44BC0E090E902A2
:10123000F090EA0221E0E216F10409F042C0D090F9
:10124000E602D092C00231E4D31609F4F3C183E47C
:10125000D8123CC08091B8029091B9020297C9F4AB
:10126000F0921D02E0921C021092B7021092B60298
:101270001092B9021092B8021092B5021092B40204
:101280001092B3021092B2021092B1021092B00208
:10129000F8DA8091B8029091B90281309105B1F4E9
:1012A00010921D0210921C029093B7028093B60216
:1012B0001093B9020093B8021092BB021092BA02C6
:1012C00005C0109236031092C002D12C8091BC024E
:1012D0009091BD02181619060CF069C093E2D9125C
:1012E00023C08091AE029091AF0201969093AF021D
:1012F0008093AE02E090AC02F090AD02E9E1EE1610
:10130000F1040CF0A1C18130910509F09DC1B9DA59
:10131000F092B502E092B4021092AD021092AC02CB
:101320001093BD020093BC028091BC029091BD025B
:10133000019779F460E080E03ADB83E492E005DA3B
:101340006AE389E393E041DB8091AC029091AD02C6
:1013500041DB8091C00290ED980F9A3098F4409153
:10136000AC025091AD02649E9001659E300D112437
:10137000082E000C990BC097820F931F9093AD021B
:101380008093AC028091BC029091BD02029779F4E7
:1013900060E080E00CDB8EE492E0D7D96AE389E379
:1013A00093E013DB8091AC029091AD0213DBF090DF
:1013B000C00232E4F3128BC164DAD093AB02C09363
:1013C000AA02D093BB02C093BA028091AA02909164
:1013D000AB02181619060CF09BC093E2F91255C027
:1013E0008091AE029091AF0201969093AF028093EC
:1013F000AE02E090AC02F090AD0221E0019709F05E
:1014000020E0E9E1EE16F1040CF09CC1222309F47E
:1014100099C137DAF092A502E092A4021092AD02CF
:101420001092AC021093AB020093AA02E090AC02BF
:10143000F090AD028091AE029091AF022CE3E216E3
:10144000F1040CF0A1C18230910509F09DC119DAB7
:10145000F0921902E09218021092AD021092AC02C2
:101460001092AB021092AA021092AF021092AE023A
:1014700010921B0210921A028091A8029091A90268
:1014800001969093A9028093A8028091AA0290915C
:10149000AB02019779F460E080E089DA83E492E0BE
:1014A00054D96AE389E393E090DA8091AC02909199
:1014B000AD0290DA8091C00290ED980F9A3098F4C6
:1014C0004091AC025091AD02649E9001659E300D3A
:1014D0001124082E000C990BC097820F931F909334
:1014E000AD028093AC028091AA029091AB02029768
:1014F00079F460E080E05BDA8EE492E026D96AE37A
:1015000089E393E062DA8091AC029091AD0262DAF5
:101510008091C0028133A1F48091BA029091BB0204
:10152000892B71F4D093B702C093B6021092A70230
:101530001092A60261E080E03ADA88E692E005D9EE
:101540008091C0028233A1F48091BA029091BB02D3
:10155000892B71F41092B7021092B602D093A702B1
:10156000C093A60261E080E022DA88E692E0EDD83E
:10157000FF24F3948091C0028A3209F0F12C80910B
:10158000BC029091BD02181619061CF5FF2009F146
:101590001092B7021092B602D0931D02C0931C02A3
:1015A0001092B5021092B4021092B3021092B202DD
:1015B0001092B1021092B00264D91092BD02109242
:1015C000BC021092AD021092AC021092AF021092C7
:1015D000AE028091AA029091AB02181619061CF572
:1015E000FF2009F11092A7021092A602D0931B02CD
:1015F000C0931A021092A5021092A402109219022E
:10160000109218021092A3021092A2023AD91092DC
:10161000AB021092AA021092AD021092AC0210928C
:10162000AF021092AE022114310409F4ABCC0E9437
:101630000000A2CC26D9F092BD02E092BC02F0924A
:10164000BB02E092BA0242CEFCE3EF16F104F4F4DE
:1016500082309105D9F415D9F092B302E092B2022A
:101660001092AD021092AC021092BD021092BC0218
:101670001092AF021092AE028091B8029091B9021E
:1016800001969093B9028093B8024ECE2CE3E216F5
:10169000F1040CF449CE029709F046CE1092AD0247
:1016A0001092AC02EED860E080E081D984E392E051
:1016B0004CD81093BD020093BC028091AE02909171
:1016C000AF0201979093AF028093AE022DCE84E4D7
:1016D000F8127BCE8091A8029091A9020297C9F4DA
:1016E000D0931B02C0931A021092A7021092A60276
:1016F0001092A9021092A8021092A5021092A402C0
:1017000010921902109218021092A3021092A202D3
:10171000B8D88091A8029091A9028130910509F072
:1017200054CE10921B0210921A029093A70280933B
:10173000A6021093A9020093A8021092BB02109275
:10174000BA0243CEF9E1EF16F1040CF46FCE222376
:1017500009F46CCE1092AD021092AC0292D860E007
:1017600080E025D98CE592E00E94A503D093AB02DE
:10177000C093AA028091AE029091AF02019790931C
:10178000AF028093AE0252CE3CE3E316F1040CF4B8
:101790007CCE029709F079CE1092AD021092AC0285
:1017A00070D860E080E003D984E392E00E94A50352
:1017B0001093AB020093AA028091AE029091AF0207
:1017C00001979093AF028093AE025FCE6170FDCC23
:1017D00010923C0310923B038CE292E090933A0308
:1017E0008093390386E180933D0387E180933E0334
:1017F00088E180933F0385E28093400384E28093F5
:10180000410383E28093420382E28093430381E2B7
:101810008093440380E2809345038FE180934603E5
:101820008EE18093470380E18093480381E030D8C4
:101830001092CC021092D0021092CF021092D102DC
:1018400082E292E09093CB028093CA02E6EEF2E04D
:1018500082E293E0108214821382158236968E17EC
:101860009F07C1F784E092E090932D0380932C03AF
:1018700080E092E090932F0380932E0384E0809386
:1018800030038093310388E092E090932B038093A0
:101890002A038AE090E0909333038093320384EF2D
:1018A00091E09093350380933403109238031092A3
:1018B00037031092260310922703109228031092E8
:1018C0002903109236030895A1E21A2EAA1BBB1B0E
:1018D000FD010DC0AA1FBB1FEE1FFF1FA217B307FC
:1018E000E407F50720F0A21BB30BE40BF50B661F12
:1018F000771F881F991F1A9469F7609570958095D6
:1019000090959B01AC01BD01CF010895EE0FFF1F23
:10191000881F8BBF0790F691E02D1994F894FFCFA4
:101920002D2C2B2A31302F2E313233413435364293
:10193000373839432A3023440200010001000000F7
:1019400000006C036F03720300000000E5047403E1
:10195000A203A103526570656174206D696E757490
:10196000657300456E74657220686F757200456E10
:10197000746572206D696E7574657300526570656B
:10198000617420686F7572002020202020202020A4
:1019900020202020202020200054696D65722041E5
:1019A000206973206F76657200410054696D65721D
:0E19B0002042206973206F76657200420000AD
:00000001FF
