:1000000001C100001EC100001CC100001AC1000097
:1000100018C1000016C1000014C1000012C1000088
:1000200010C100000EC100000CC100000AC1000098
:1000300008C1000006C1000004C1000002C10000A8
:1000400000C10000FEC00000FCC00000FAC00000BB
:10005000F8C000003FC20000F4C00000F1C1000081
:10006000F0C00000EEC00000ECC00000EAC00000DC
:10007000E8C00000E6C00000E4C00000E2C00000EC
:10008000E0C00000DEC00000DCC00000DAC00000FC
:10009000D8C00000D6C00000D4C00000D2C000000C
:1000A000D0C00000CEC00000CCC00000CAC000001C
:1000B000C8C00000C6C00000C4C00000C2C000002C
:1000C000C0C00000BEC00000BCC00000BAC000003C
:1000D000B8C00000B6C00000B4C00000B2C000004C
:1000E000B0C0000000002100240027002A002D00DD
:1000F0003000330001010000040107010A01000083
:100100002200250028002B002E00310034000201BF
:100110000000050108010B0100002000230026005B
:1001200029002C002F00320000010000030106010D
:10013000090105050505070508080808020202026D
:100140000A0A080804040404010101010101010173
:100150000303030303030303040707070C0C0C0C3E
:100160000C0C0C0C02020202060606060606060627
:100170000B0B0B0B0B0B0B0B0102102020080810B4
:100180002040102040800201020108040201010207
:1001900004081020408080402010080402018004E0
:1001A000020180402010080402010804020101023B
:1001B0000408102040800102040810204080000044
:1001C0000A0B02090C0D0E080703040100000000D1
:1001D000000000000000000000000000000000001F
:1001E00000000000000000000000121110000000DC
:1001F00000000000000000000000000000000000FF
:100200000000000011241FBECFEFD1E2DEBFCDBF42
:1002100000E00CBF12E0A0E0B2E0E8EFFCE000E09C
:100220000BBF02C007900D92A231B107D9F722E0AF
:10023000A2E1B2E001C01D92A634B207E1F773D289
:1002400059C5DECE8150823108F059C0E82FF0E068
:100250008827E35DFE4F8F4F31C54D0151013F01AE
:10026000450149017F0154015A015E0164016801A1
:100270006C01720176017F017A0180018401809115
:1002800080008F77809380000895809180008F7D1B
:10029000F9CF80918000877FF5CF84B58F7784BDBB
:1002A000089584B58F7DFBCF8091B0008F778093C8
:1002B000B00008958091B0008F7DF9CF80919000BB
:1002C0008F77809390000895809190008F7DF9CF73
:1002D00080919000877FF5CF8091A0008F778093E9
:1002E000A00008958091A0008F7DF9CF8091A0009B
:1002F000877FF5CF809120018F778093200108952B
:10030000809120018F7DF9CF80912001877FF5CFEB
:10031000CF93DF93282F30E0F901E254FE4F849110
:10032000F901E858FE4FD491F901EE5CFE4FC491FB
:10033000CC2399F0811186DFEC2FF0E0EE0FFF1F48
:10034000E85EFE4FA591B491EC91ED2381E090E041
:1003500009F480E0DF91CF91089580E090E0FACF3A
:100360001F93CF93DF93282F30E0F901E254FE4F23
:100370008491F901E858FE4FD491F901EE5CFE4FEB
:10038000C491CC23A1F0162F81115CDFEC2FF0E09B
:10039000EE0FFF1FE250FF4FA591B4918FB7F89475
:1003A000EC91111108C0D095DE23DC938FBFDF9153
:1003B000CF911F910895DE2BF8CFCF93DF9390E07C
:1003C000FC01E858FE4F24918E5C9E4FFC01849105
:1003D0008823D1F090E0880F991FFC01EC51FF4F6A
:1003E000A591B491FC01E250FF4FC591D4916111E8
:1003F0000EC09FB7F8948C91E22FE0958E238C93DA
:100400002881E223E8839FBFDF91CF9108958FB7C2
:10041000F894EC91E22BEC938FBFF6CF8091190208
:1004200090911A028436910534F4019690931A0241
:1004300080931902089510921A02109219020895D9
:100440001F920F920FB60F9211242F933F938F9309
:100450009F93AF93BF938091420290914302A091EA
:100460004402B09145023091410223E0230F2D3721
:1004700058F50196A11DB11D2093410280934202BF
:1004800090934302A0934402B093450280913D02B1
:1004900090913E02A0913F02B09140020196A11DB1
:1004A000B11D80933D0290933E02A0933F02B09312
:1004B0004002BF91AF919F918F913F912F910F90EB
:1004C0000FBE0F901F90189526E8230F0296A11DCE
:1004D000B11DD2CF1F920F920FB60F9211240BB6FF
:1004E0000F922F933F934F935F936F937F938F93CD
:1004F0009F93AF93BF93EF93FF93809118028F5F09
:100500008093180220911B0230911C0212161306D0
:1005100034F42150310930931C0220931B028C319A
:1005200009F0C6C010921802809102029091030255
:10053000892B09F05BC080913B0290913C020197AE
:1005400090933C0280933B020196A9F4809135027E
:10055000909136022BE330E030933C0220933B0233
:100560000197909336028093350281E090E090935A
:1005700017028093160280913502909136020196FF
:10058000C9F48091160290911702019799F4809115
:100590002F029091300201979093300280932F02A6
:1005A0008BE390E09093360280933502109217020D
:1005B0001092160280912F02909130020196B1F4B0
:1005C00081E090E090930302809302021092300247
:1005D00010922F02109236021092350210923C02B5
:1005E00010923B02909315028093140280910002B6
:1005F00090910102892B09F05BC080912B029091B0
:100600002C02019790932C0280932B020196A9F45F
:1006100080912502909126022BE330E030932C024A
:1006200020932B020197909326028093250281E06C
:1006300090E0909313028093120280912502909192
:1006400026020196C9F4809112029091130201973B
:1006500099F480911F0290912002019790932002BB
:1006600080931F028BE390E09093260280932502F3
:10067000109217021092160280911F029091200290
:100680000196B1F481E090E0909301028093000222
:1006900010922C0210922B02109226021092250228
:1006A0001092200210921F02909315028093140260
:1006B00080911B0290911C02892B11F580911402EC
:1006C00090911502029739F460E081E249DE1092C0
:1006D0001502109214028091140290911502019754
:1006E00079F461E081E23CDE82E090E090931502D3
:1006F0008093140289E190E090931C0280931B0286
:10070000FF91EF91BF91AF919F918F917F916F91E9
:100710005F914F913F912F910F900BBE0F900FBEA5
:100720000F901F901895789484B5826084BD84B52D
:10073000816084BD85B5826085BD85B5816085BDDC
:1007400080916E00816080936E0010928100809194
:10075000810082608093810080918100816080931C
:100760008100809180008160809380008091B10041
:1007700084608093B1008091B00081608093B0006C
:1007800080919100826080939100809191008160BE
:10079000809391008091900081608093900080917F
:1007A000A10082608093A1008091A100816080936C
:1007B000A1008091A00081608093A0008091210120
:1007C00082608093210180912101816080932101C9
:1007D0008091200181608093200180917A00846063
:1007E00080937A0080917A00826080937A00809171
:1007F0007A00816080937A0080917A00806880938B
:100800007A001092C100F89414BC15BC87EF87BD24
:1008100085B5886085BD85B5816085BD85B58460F9
:1008200085BD80916E00826080936E00789460E058
:1008300082E1C3DD61E082E193DD60E083E1BDDD63
:1008400061E083E18DDD60E084E1B7DD61E084E1BA
:1008500087DD60E085E1B1DD61E085E181DD61E0BA
:1008600087E1ABDD61E087E17BDD61E088E1A5DD6B
:1008700061E088E175DD61E089E19FDD61E089E1AA
:100880006FDD61E08AE199DD61E08AE169DD61E0C7
:100890008BE193DD61E08BE163DD61E08CE18DDD77
:1008A00061E08CE15DDD61E081E287DDCAE0D0E0FE
:1008B00087E7B82E9CE7A92E20E0C22E20E0D22E9A
:1008C0000AE010E0EE24E394F12C80910402909170
:1008D0000502019709F07FC080913B0290913C0294
:1008E000BE01D9D170933A026093390290933802D5
:1008F000809337028091350290913602BE01CBD1B0
:1009000070933402609333029093320280933102E9
:1009100080912F0290913002BE01BDD190932E02A2
:1009200080932D02B5B860E087E11ADD77DD61E0E4
:1009300087E116DDE0912D02F0912E02EA5FFD4F76
:10094000808185B961E08DE00BDD60E088E108DD44
:1009500065DD61E088E104DDE0913302F09134026D
:10096000EA5FFD4F808185B960E089E1F9DC56DD01
:1009700061E089E1F5DCE0913102F0913202EA5F59
:10098000FD4F808185B961E08DE0EADC60E08AE1BD
:10099000E7DC44DD61E08AE1E3DCE0913902F091DB
:1009A0003A02EA5FFD4F808185B960E08BE1D8DCD7
:1009B00035DD61E08BE1D4DCE0913702F091380263
:1009C000EA5FFD4F808185B960E08CE1C9DC26DDFE
:1009D00061E08CE1C5DC80910402909105020297F0
:1009E00009F080C080912B0290912C02BE0153D15E
:1009F00070932A0260932902909328028093270221
:100A00008091250290912602BE0145D17093240267
:100A100060932302909322028093210280911F020F
:100A200090912002BE0137D190931E0280931D0247
:100A3000A5B8F4DC60E087E193DCF0DC61E087E1FD
:100A40008FDCE0911D02F0911E02EA5FFD4F808174
:100A500085B961E08DE084DC60E088E181DCDEDC8A
:100A600061E088E17DDCE0912302F0912402EA5FFD
:100A7000FD4F808185B960E089E172DCCFDC61E007
:100A800089E16EDCE0912102F0912202EA5FFD4FE4
:100A9000808185B961E08DE063DC60E08AE160DC43
:100AA000BDDC61E08AE15CDCE0912902F0912A0280
:100AB000EA5FFD4F808185B960E08BE151DCAEDCFF
:100AC00061E08BE14DDCE0912702F0912802EA5FC2
:100AD000FD4F808185B960E08CE142DC9FDC61E004
:100AE0008CE13EDC80911B0290911C02892B09F065
:100AF0006EC082E10DDC892BD9F4809104029091C3
:100B000005028130910509F069C08091020290913F
:100B10000302019749F480912F02909130020196CF
:100B20009093300280932F0210931C0200931B02BB
:100B300083E1EEDB892BD9F48091040290910502C8
:100B40008130910509F05EC080910202909103020C
:100B5000019749F480913502909136020196909365
:100B600036028093350210931C0200931B0284E12D
:100B7000CFDB892B89F480910402909105020196C4
:100B80008330910509F452C09093050280930402CA
:100B900010931C0200931B0285E1BADB892BB9F488
:100BA00080910402909105028130910509F054C0B2
:100BB000209102023091030221303105E1F51092BB
:100BC00003021092020210931C0200931B02C11434
:100BD000D10409F47ACE0E94000077CE029709F082
:100BE000A3CF8091000290910102019709F09CCF60
:100BF00080911F0290912002019690932002809391
:100C00001F0292CF029709F0AECF8091000290911F
:100C10000102019709F0A7CF809125029091260249
:100C2000019690932602809325029DCFF0920502B3
:100C3000E0920402ADCF90930302809302021092DF
:100C40003C0210923B021092360210923502109232
:100C5000300210922F02B7CF029709F0B4CF8091E3
:100C6000000290910102019729F410920102109262
:100C70000002A9CFF0920102E092000210922C0231
:100C800010922B021092260210922502109220023E
:100C900010921F0298CF97FB072E16F4009406D0EF
:100CA00077FD08D013D007FC05D03EF490958195D0
:100CB0009F4F0895709561957F4F0895EE0FFF1F28
:100CC000881F8BBF0790F691E02D1994AA1BBB1BC0
:100CD00051E107C0AA1FBB1FA617B70710F0A61B3C
:100CE000B70B881F991F5A95A9F780959095BC015D
:080CF000CD010895F894FFCF37
:100CF8000100010001003F065B4F666D7D077F6FB5
:020D0800777CF6
:00000001FF
