:1000000002C100002EC100002CC100002AC1000066
:1000100028C1000026C1000024C1000022C1000048
:1000200020C100001EC100001CC100001AC1000058
:1000300018C1000016C1000014C1000012C1000068
:1000400010C100000EC100000CC100000AC1000078
:1000500008C1000006C1000004C1000074C3000014
:1000600000C10000E3C30000B8C30000FAC00000F4
:10007000F8C00000F6C00000F4C00000F2C00000AC
:10008000F0C00000EEC00000ECC00000EAC00000BC
:10009000E8C00000E6C00000E4C00000E2C00000CC
:1000A000E0C00000DEC00000DCC00000DAC00000DC
:1000B000D8C00000D6C00000D4C00000D2C00000EC
:1000C000D0C00000CEC00000CCC00000CAC00000FC
:1000D000C8C00000C6C00000C4C00000C2C000000C
:1000E000C0C0000000002100240027002A002D00CD
:1000F0003000330001010000040107010A01000083
:100100002200250028002B002E00310034000201BF
:100110000000050108010B0100002000230026005B
:1001200029002C002F00320000010000030106010D
:10013000090105050505070508080808020202026D
:100140000A0A080804040404010101010101010173
:100150000303030303030303040707070C0C0C0C3E
:100160000C0C0C0C02020202060606060606060627
:100170000B0B0B0B0B0B0B0B0102102020080810B4
:100180002040102040800201020108040201010207
:1001900004081020408080402010080402018004E0
:1001A000020180402010080402010804020101023B
:1001B0000408102040800102040810204080000044
:1001C0000A0B02090C0D0E080703040100000000D1
:1001D000000000000000000000000000000000001F
:1001E00000000000000000000000121110000000DC
:1001F00000000000000000000000000000000000FF
:10020000000000000D0611241FBECFEFD1E2DEBFBB
:10021000CDBF00E00CBF12E0A0E0B2E0E8E8FCE0F7
:1002200000E00BBF02C007900D92A232B107D9F7D0
:1002300022E0A2E2B2E001C01D92A83CB207E1F7C1
:1002400011E0C3E0D1E000E005C021970109802F53
:10025000FE0110D5C230D10780E00807B1F71CD3EA
:1002600011C5CECE8150823108F059C0E82FF0E0A0
:100270008827E35CFE4F8F4FFDC45D0161014F0194
:10028000550159018F0164016A016E017401780101
:100290007C01820186018F018A0190019401809185
:1002A00080008F77809380000895809180008F7DFB
:1002B000F9CF80918000877FF5CF84B58F7784BD9B
:1002C000089584B58F7DFBCF8091B0008F778093A8
:1002D000B00008958091B0008F7DF9CF809190009B
:1002E0008F77809390000895809190008F7DF9CF53
:1002F00080919000877FF5CF8091A0008F778093C9
:10030000A00008958091A0008F7DF9CF8091A0007A
:10031000877FF5CF809120018F778093200108950A
:10032000809120018F7DF9CF80912001877FF5CFCB
:10033000CF93DF93282F30E0F901E254FE4F8491F0
:10034000F901E858FE4FD491F901EE5CFE4FC491DB
:10035000CC2399F0811186DFEC2FF0E0EE0FFF1F28
:10036000E85EFE4FA591B491EC91ED2381E090E021
:1003700009F480E0DF91CF91089580E090E0FACF1A
:100380001F93CF93DF93282F30E0F901E254FE4F03
:100390008491F901E858FE4FD491F901EE5CFE4FCB
:1003A000C491CC23A1F0162F81115CDFEC2FF0E07B
:1003B000EE0FFF1FE250FF4FA591B4918FB7F89455
:1003C000EC91111108C0D095DE23DC938FBFDF9133
:1003D000CF911F910895DE2BF8CFCF93DF9390E05C
:1003E000FC01E858FE4F24918E5C9E4FFC018491E5
:1003F0008823D1F090E0880F991FFC01EC51FF4F4A
:10040000A591B491FC01E250FF4FC591D4916230A7
:1004100071F49FB7F8943C91822F809583238C933D
:10042000E8812E2B28839FBFDF91CF9108958FB74E
:10043000F894EC912E2B2C938FBFF6CF3FB7F89406
:100440008091C4029091C502A091C602B091C702EA
:1004500026B5A89B05C02F3F19F00196A11DB11D1F
:100460003FBFBA2FA92F982F8827BC01CD01620F5B
:10047000711D811D911D42E0660F771F881F991F16
:100480004A95D1F708958F929F92AF92BF92CF92E3
:10049000DF92EF92FF924B015C01D0DF6B017C0198
:1004A000CDDF6C197D098E099F09683E7340810577
:1004B0009105B0F321E0821A9108A108B10888EEF5
:1004C000C80E83E0D81EE11CF11C81149104A10424
:1004D000B10431F7FF90EF90DF90CF90BF90AF90D5
:1004E0009F908F900895AF92BF92CF92DF92EF923C
:1004F000FF920F931F93CF93DF936C017B018B01CE
:10050000040F151FEB015E01AE18BF08C017D1071D
:1005100059F06991D601ED91FC910190F081E02DA7
:10052000C6011995892B79F7C501DF91CF911F91EC
:100530000F91FF90EF90DF90CF90BF90AF90089514
:10054000FC01538D448D252F30E0842F90E0821BD9
:10055000930B541710F0CF96089501970895FC015E
:10056000918D828D981761F0A28DAE0FBF2FB11DB6
:100570005D968C91928D9F5F9F73928F90E008950E
:100580008FEF9FEF0895FC01918D828D981731F0C8
:10059000828DE80FF11D858D90E008958FEF9FEF1C
:1005A0000895FC01918D228D892F90E0805C9F4FF2
:1005B000821B91098F739927089582E292E0F1DFFF
:1005C00021E0892B09F420E0822F0895FC01A48DFD
:1005D000A80FB92FB11DA35ABF4F2C91848D90E065
:1005E00001968F739927848FA689B7892C93A08948
:1005F000B1898C91837080648C93938D848D9813D2
:1006000006C00288F389E02D80818F7D8083089564
:10061000EF92FF920F931F93CF93DF93EC0181E052
:10062000888F9B8D8C8D98131AC0E889F9898081F9
:1006300085FF15C09FB7F894EE89FF896083E8892C
:10064000F98980818370806480839FBF81E090E01E
:10065000DF91CF911F910F91FF90EF900895F62EAB
:100660000B8D10E00F5F1F4F0F731127E02E8C8D45
:100670008E110BC00FB607FCFACFE889F98980818B
:1006800085FFF5CFCE01A2DFF2CFEB8DEC0FFD2F72
:10069000F11DE35AFF4FF0829FB7F8940B8FEA8960
:1006A000FB8980818062D0CFCF93DF93EC01888D6E
:1006B0008823B1F0AA89BB89E889F9898C9185FDE5
:1006C00003C0808186FD0CC00FB607FCF7CF8C916C
:1006D00085FFF2CF808185FFEDCFCE0177DFEACFB6
:1006E000DF91CF91089580E090E0892B21F065DFC4
:1006F00081110E94000080E090E0892B49F080E0A9
:1007000090E0892B29F00E94000081110E940000D6
:1007100080E090E0892B49F080E090E0892B29F07F
:100720000E94000081110E94000080E090E0892B6F
:1007300049F080E090E0892B29F00E9400008111AF
:100740000C94000008951F920F920FB60F9211247F
:100750002F933F938F939F93AF93BF938091C0024A
:100760009091C102A091C202B091C3023091BF0228
:1007700023E0230F2D3758F50196A11DB11D2093BD
:10078000BF028093C0029093C102A093C202B093B3
:10079000C3028091C4029091C502A091C602B0919B
:1007A000C7020196A11DB11D8093C4029093C5029A
:1007B000A093C602B093C702BF91AF919F918F9152
:1007C0003F912F910F900FBE0F901F90189526E824
:1007D000230F0296A11DB11DD2CF1F920F920FB60B
:1007E0000F9211240BB60F922F933F934F935F9369
:1007F0006F937F938F939F93AF93BF93EF93FF93E9
:1008000082E292E0E3DEFF91EF91BF91AF919F9181
:100810008F917F916F915F914F913F912F910F90A9
:100820000BBE0F900FBE0F901F9018951F920F9246
:100830000FB60F9211240BB60F922F938F939F93A5
:10084000EF93FF93E0913202F09133028081E091C7
:100850003802F091390282FD1DC0908180913B02E7
:100860008F5F8F7320913C02821741F0E0913B0231
:10087000F0E0EE5DFD4F958F80933B02FF91EF918D
:100880009F918F912F910F900BBE0F900FBE0F90E5
:100890001F9018958081F2CF789484B5826084BDD2
:1008A00084B5816084BD85B5826085BD85B5816074
:1008B00085BD80916E00816080936E0010928100F2
:1008C00080918100826080938100809181008160AD
:1008D000809381008091800081608093800080916E
:1008E000B10084608093B1008091B00081608093FA
:1008F000B00080919100826080939100809191007E
:10090000816080939100809190008160809390003D
:100910008091A10082608093A1008091A1008160FC
:100920008093A1008091A00081608093A0008091BD
:100930002101826080932101809121018160809357
:1009400021018091200181608093200180917A00B3
:10095000846080937A0080917A00826080937A002C
:1009600080917A00816080937A0080917A0080681B
:1009700080937A001092C100E0913202F09133022C
:1009800082E08083E0912E02F0912F021082E091AC
:100990003002F09131028FEC808310923A02E091A4
:1009A0003602F091370286E08083E0913402F091C4
:1009B0003502808180618083E0913402F0913502BC
:1009C000808188608083E0913402F09135028081DB
:1009D00080688083E0913402F091350280818F7DC0
:1009E000808362E089E1F9DC62E08BE1F6DC02E120
:1009F00012E082E2E82E82E0F82EE8018881229659
:100A000060E0BEDCEC16FD06C9F7F80180810E5FE0
:100A10001F4F61E0E2DCC017D107B9F782E292E034
:100A2000C0DD892B09F487C082E292E098DD813A2B
:100A3000910509F09CC061E081E3A2DC68EE73E0FF
:100A400080E090E020DD60E081E39ADC62E370E02A
:100A500080E090E018DD61E08FE292DC68EE73E008
:100A600080E090E010DD60E08FE28ADC62E370E01D
:100A700080E090E008DD61E08DE282DC68EE73E00A
:100A800080E090E000DD60E08DE27ADC62E370E01F
:100A900080E090E0F8DC61E08BE272DC68EE73E00D
:100AA00080E090E0F0DC60E08BE26ADC62E370E022
:100AB00080E090E0E8DC61E080E362DC68EE73E017
:100AC00080E090E0E0DC60E080E35ADC62E370E02C
:100AD00080E090E0D8DC61E08EE252DC68EE73E00A
:100AE00080E090E0D0DC60E08EE24ADC62E370E01F
:100AF00080E090E0C8DC61E08CE242DC68EE73E00C
:100B000080E090E0C0DC60E08CE23ADC62E370E020
:100B100080E090E0B8DC61E08AE232DC68EE73E00D
:100B200080E090E0B0DC60E08AE22ADC62E370E022
:100B300080E090E0A8DC89E1FBDB892B49F461EBE4
:100B400082E292E065DD64E670E080E090E09BDCAC
:100B50008BE1EEDB892B49F462EB82E292E058DD17
:100B60006AE070E080E090E08EDCBDDD57CF813B35
:100B7000910509F761E081E303DC61E08AE200DCD2
:100B800068EE73E080E090E07EDC60E081E3F8DB1B
:100B900060E08AE2F5DB62E370E080E090E073DC25
:100BA00061E080E3EDDB61E08BE2EADB68EE73E0BD
:100BB00080E090E068DC60E080E3E2DB60E08BE214
:100BC000DFDB62E370E080E090E05DDC61E08FE21B
:100BD000D7DB61E08CE2D4DB68EE73E080E090E08C
:100BE00052DC60E08FE2CCDB60E08CE2C9DB62E3E8
:100BF00070E080E090E047DC61E08EE2C1DB61E024
:100C00008DE2BEDB68EE73E080E090E03CDC60E00B
:100C10008EE2B6DB60E08DE288CFE2E2F2E01382A2
:100C2000128288EE93E0A0E0B0E084839583A683EF
:100C3000B78384E092E09183808385EC90E0958790
:100C4000848784EC90E09787868780EC90E0918B96
:100C5000808B81EC90E0938B828B82EC90E0958B83
:100C6000848B86EC90E0978B868B118E128E138E80
:100C7000148E0895EE0FFF1F881F8BBF0790F6910B
:080C8000E02D1994F894FFCF58
:100C88000000000008037302A0025403D102AF025F
:100C9800C302310030002F002E002D002C002B0045
:020CA8002A0020
:00000001FF
