:100000000C9463000C948B000C948B000C948B006C
:100010000C948B000C948B000C948B000C948B0034
:100020000C948B000C948B000C948B000C948B0024
:100030000C948B000C948B000C948B000C948B0014
:100040000C94DD020C948B000C944D030C9427034C
:100050000C948B000C948B000C948B000C948B00F4
:100060000C948B000C948B006364696E6F707375D5
:1000700078585B0000000000240027002A000000E0
:100080000000250028002B000404040404040404D8
:100090000202020202020303030303030102040833
:1000A00010204080010204081020010204081020E2
:1000B0000000000800020100000304070000000027
:1000C00000000000860511241FBECFEFD8E0DEBF80
:1000D000CDBF11E0A0E0B1E0E0E1FAE102C005909F
:1000E0000D92AA33B107D9F721E0AAE3B1E001C02C
:1000F0001D92A83EB207E1F710E0C3E6D0E004C0CD
:100100002197FE010E94B305C236D107C9F70E94AC
:100110007F030C94060D0C940000E2EBF0E0949148
:10012000EEE9F0E02491EAE8F0E0E491EE2309F44E
:100130003CC0992339F1933091F038F49130A9F013
:10014000923001F594B59F7D12C0973091F09830B0
:10015000A1F09430B9F4909180009F7D03C09091FC
:1001600080009F77909380000DC094B59F7794BDD9
:1001700009C09091B0009F7703C09091B0009F7D1F
:100180009093B000F0E0EE0FFF1FE258FF4FA591F3
:10019000B4919FB7F894811104C08C9120952823C5
:1001A00002C0EC912E2B2C939FBF08954F925F922B
:1001B0006F927F928F929F92AF92BF92CF92DF9277
:1001C000EF92FF921F93CF93DF93CDB7DEB7D4505A
:1001D0000FB6F894DEBF0FBECDBFFE013196412CA5
:1001E000512C32019F0173016201A8E0B0E0460189
:1001F0005701880C991CAA1CBB1CC7FE04C07501C2
:100200006401C09402C075016401119781F7DD2477
:10021000EE24FF24C192D192E192F1921FEF411A94
:10022000510A610A710A4114A1E05A06610471047D
:10023000D1F6FC01C12CD12C76018FE290E0A0E038
:10024000B0E0C416D506E606F706D9F04190042CB6
:10025000000C55086608770884259525A625B7253E
:10026000880F991F880F991FD901A80FB91F8C916A
:1002700090E0A0E0B0E01FEFC11AD10AE10AF10A54
:10028000E0CFBC01CD016095DC5F0FB6F894DEBF16
:100290000FBECDBFDF91CF911F91FF90EF90DF9008
:1002A000CF90BF90AF909F908F907F906F905F9016
:1002B0004F9008953FB7F894809143019091440185
:1002C000A0914501B091460126B5A89B05C02F3FDE
:1002D00019F00196A11DB11D3FBFBA2FA92F982F6C
:1002E0008827820F911DA11DB11DBC01CD0142E0E7
:1002F000660F771F881F991F4A95D1F708958F922F
:100300009F92AF92BF92CF92DF92EF92FF926B01DA
:100310007C010E945A014B015C01C114D104E1042B
:10032000F104F1F00E945A01DC01CB01881999090E
:10033000AA09BB09883E9340A105B10570F321E0ED
:10034000C21AD108E108F10888EE880E83E0981EF1
:10035000A11CB11CC114D104E104F10419F7DDCFD3
:10036000FF90EF90DF90CF90BF90AF909F908F90D5
:100370000895CF92DF92EF92FF920F931F93CF9346
:10038000DF936C017A018B01C0E0D0E0CE15DF0570
:1003900081F0D8016D918D01D601ED91FC91019014
:1003A000F081E02DC6010995892B11F02196EECF41
:1003B0007E01C701DF91CF911F910F91FF90EF90C8
:1003C000DF90CF900895089580E090E00895FC01BB
:1003D000538D448D252F30E0842F90E0821B930BAA
:1003E000541710F0CF96089501970895FC01918D50
:1003F000828D981761F0828DDF01A80FB11D5D9687
:100400008C91928D9F5F9F73928F90E008958FEFF4
:100410009FEF0895FC01918D828D981731F0828DA8
:10042000E80FF11D858D90E008958FEF9FEF0895FF
:10043000FC01918D228D892F90E0805C9F4F821B63
:1004400091098F739927089587E491E00E9418021B
:1004500021E0892B09F420E0822F0895FC01848D8E
:10046000DF01A80FB11DA35ABF4F2C91848D90E0DE
:1004700001968F739927848FA689B7892C93A089B9
:10048000B1898C91837080648C93938D848D981343
:1004900006C00288F389E02D80818F7D80830895D6
:1004A000EF92FF920F931F93CF93DF93EC0181E0C4
:1004B000888F9B8D8C8D981305C0E889F989808180
:1004C00085FD26C0F62E0B8D10E00F5F1F4F0F73BA
:1004D0001127E02E8C8DE8120CC00FB607FCFACF66
:1004E000E889F989808185FFF5CFCE010E942E022F
:1004F000F1CF8B8DFE01E80FF11DE35AFF4FF08223
:100500009FB7F8940B8FEA89FB89808180620AC0CB
:100510009FB7F894EE89FF896083E889F989808123
:100520008370806480839FBF81E090E0DF91CF91F2
:100530001F910F91FF90EF900895CF93DF93EC01FF
:10054000888D8823C9F0EA89FB89808185FD05C0F3
:10055000A889B9898C9186FD0FC00FB607FCF5CF2D
:10056000808185FFF2CFA889B9898C9185FFEDCF75
:10057000CE010E942E02E7CFDF91CF91089580E057
:1005800090E0892B29F00E94240281110C94000034
:100590000895009769F0FC0101900020E9F7319778
:1005A000AF01481B590BBC0187E491E00C94B901E1
:1005B00080E090E008950E94DA061F920F920FB635
:1005C0000F9211242F933F938F939F93AF93BF93D9
:1005D00080913F0190914001A0914101B091420171
:1005E00030913E0123E0230F2D3720F40196A11D09
:1005F000B11D05C026E8230F0296A11DB11D209351
:100600003E0180933F0190934001A0934101B0933C
:1006100042018091430190914401A0914501B09124
:1006200046010196A11DB11D8093430190934401A1
:10063000A0934501B0934601BF91AF919F918F91D7
:100640003F912F910F900FBE0F901F9018951F9202
:100650000F920FB60F9211242F933F934F935F93F6
:100660006F937F938F939F93AF93BF93EF93FF937A
:1006700087E491E00E942E02FF91EF91BF91AF912C
:100680009F918F917F916F915F914F913F912F91AA
:100690000F900FBE0F901F9018951F920F920FB6DC
:1006A0000F9211242F938F939F93EF93FF93E091D9
:1006B0005701F09158018081E0915D01F0915E0158
:1006C00082FD12C09081809160018F5F8F732091B5
:1006D0006101821751F0E0916001F0E0E95BFE4FAB
:1006E000958F8093600101C08081FF91EF919F9170
:1006F0008F912F910F900FBE0F901F901895CF9351
:10070000DF93CDB7DEB76F970FB6F894DEBF0FBE9D
:10071000CDBF789484B5826084BD84B5816084BD8A
:1007200085B5826085BD85B5816085BD80916E008F
:10073000816080936E0010928100809181008260C0
:1007400080938100809181008160809381008091FD
:1007500080008160809380008091B10084608093EC
:10076000B1008091B00081608093B00080917A00E8
:10077000846080937A0080917A00826080937A000E
:1007800080917A00816080937A0080917A008068FD
:1007900080937A001092C100E0915701F0915801C6
:1007A00082E08083E0915301F09154011082E09146
:1007B0005501F09156018AE8808310925F01E09123
:1007C0005B01F0915C0186E08083E0915901F0913A
:1007D0005A01808180618083E0915901F0915A0132
:1007E000808188608083E0915901F0915A01808175
:1007F00080688083E0915901F0915A0180818F7D5A
:100800008083EEE9F0E02491EAE8F0E08491882327
:1008100099F090E0880F991FFC01EC58FF4FA591CB
:10082000B491FC01E258FF4F859194918FB7F894F1
:10083000EC91E22BEC938FBF80E00E948D00CE0103
:1008400001967C0188E1882E81E0982E8E010B5E56
:100850001F4F95E3B92E20E2C22E21E0D22E32E0C6
:10086000332E40EC242E10923D0110923C0187E47F
:1008700091E00E941802892B09F43FC182E390E0C5
:100880000E94B90590933B0180933A0165E070E0C6
:1008900080E090E00E947F0187E491E00E941802CE
:1008A000892B09F440C087E491E00E94F601409151
:1008B0003A0150913B0120913C0130913D018B3335
:1008C00031F5FA01E20FF31F108210923D011092F0
:1008D0003C01FF92EF929F928F925F934F930E9401
:1008E0000A070F900F900F900F900F900F90898133
:1008F0009A81C59789F287E491E00E941802892BBA
:1009000009F4FBC087E491E00E94F601F4CFB9013D
:100910006F5F7F4F70933D0160933C01FA01E20FDE
:10092000F31F8083B9CF20913C0130913D01121615
:1009300013060CF0E2C080913A0190913B01A901AD
:100940004F5F5F4F50933D0140933C01FC01E20F2C
:10095000F31F1082141615060CF0CFC06BE171E086
:100960000E94DF06892B09F0C8C08BE0EEE2F1E0BF
:10097000D80101900D928A95E1F781E00E948D00E7
:100980004AE050E060E070E0C8010E94D600762E98
:10099000672E582E492E6CE370E080E090E00E94B4
:1009A0007F011F930F934F925F926F927F921F92DE
:1009B000BF921F92AA24A394AF92DF92CF92FF928C
:1009C000EF920E94E806C7010E94C90262E370E04C
:1009D00080E090E00E947F018D8980588D8B1F936D
:1009E0000F934F925F926F927F921F92BF921F92CE
:1009F000AF92DF92CF92FF92EF920E94E806C7017A
:100A00000E94C90262E370E080E090E00E947F01F2
:100A10008D8980588D8BF80101900020E9F732977D
:100A20008081832580831F930F934F925F926F92F3
:100A30007F921F92BF921F92AF92DF92CF92FF924E
:100A4000EF920E94E8060FB6F894DEBF0FBECDBF4E
:100A5000C7010E94C90262E370E080E090E00E945A
:100A60007F01F80101900020E9F73297808183250A
:100A70008083888D8225888F1F930F934F925F927A
:100A80006F927F921F92BF921F92AF92DF92CF928E
:100A9000FF92EF920E94E806C7010E94C90262E33A
:100AA00070E080E090E00E947F01888D8225888F31
:100AB0008F8D92EC89278F8F1F930F934F925F92A8
:100AC0006F927F921F92BF921F92AF92DF92CF924E
:100AD000FF92EF920E94E806C7010E94C9026CE3F0
:100AE00070E080E090E00E947F0180E00E948D0035
:100AF0000FB6F894DEBF0FBECDBF80913A01909142
:100B00003B010E9451060E94BF02ADCEE7E4F1E036
:100B10001382128288EE93E0A0E0B0E08483958394
:100B2000A683B7838AE091E09183808385EC90E08F
:100B30009587848784EC90E09787868780EC90E0A7
:100B4000918B808B81EC90E0938B828B82EC90E098
:100B5000958B848B86EC90E0978B868B118E128E12
:100B6000138E148E0895EE0FFF1F0590F491E02D63
:100B700009940F931F93CF93DF938230910510F464
:100B800082E090E0E091E601F091E70120E030E0C2
:100B9000A0E0B0E0309719F14081518102811381CA
:100BA00048175907C8F08417950769F4109731F072
:100BB00012960C93129713961C9327C00093E6018C
:100BC0001093E70122C02115310519F04217530790
:100BD00018F49A01BD01EF01DF01F801DBCF211507
:100BE0003105F9F0281B390B2430310580F48A8156
:100BF0009B816115710521F0FB019383828304C001
:100C00009093E7018093E601FE01329644C0FE0115
:100C1000E20FF31F81939193225031093983288386
:100C20003AC02091E4013091E501232B41F4209159
:100C30000201309103013093E5012093E4012091FA
:100C40000001309101012115310541F42DB73EB766
:100C50004091040150910501241B350BE091E40102
:100C6000F091E501E217F307A0F42E1B3F0B2817C4
:100C7000390778F0AC014E5F5F4F2417350748F015
:100C80004E0F5F1F5093E5014093E40181939193D0
:100C900002C0E0E0F0E0CF01DF91CF911F910F9112
:100CA0000895CF93DF93009709F481C0FC01329738
:100CB00013821282A091E601B091E701109781F4AE
:100CC00020813181820F931F2091E4013091E50151
:100CD0002817390751F5F093E501E093E40167C067
:100CE000ED0120E030E0CE17DF0740F44A815B8160
:100CF0009E0141155105F1F0EA01F5CFD383C2837E
:100D000040815181840F951FC817D90759F48881F4
:100D10009981840F951F0296918380838A819B819C
:100D2000938382832115310529F4F093E701E09341
:100D3000E6013DC0E901FB83EA8349915991C40F63
:100D4000D51FEC17FD0761F480819181840F951FF9
:100D50000296E90199838883828193819B838A83A8
:100D6000E0E0F0E012968D919C911397009719F0B6
:100D7000FD01DC01F7CF8D919C9111979D012E5FB4
:100D80003F4F820F931F2091E4013091E501281716
:100D9000390769F4309729F41092E7011092E601BF
:100DA00002C013821282B093E501A093E401DF91A7
:100DB000CF91089581E090E0F8940C94060DFB012A
:100DC000DC018D91019080190110D9F3990B0895E0
:100DD000AEE0B0E0EEEEF6E00C94DD0C0D891E897D
:100DE00086E08C831A8309838FEF9FE79E838D8330
:100DF000AE01475E5F4F6F89788DCE0101960E94EC
:100E00002307EF81F885E00FF11F10822E96E4E0B2
:100E10000C94F90CAEE0B0E0E0E1F7E00C94DF0CEC
:100E200085E08C838B899C899A838983AE01495E96
:100E30005F4F6D897E89CE0101960E94A00A2E9691
:100E4000E2E00C94FB0CABE0B0E0E9E2F7E00C94DC
:100E5000CF0C6C017B018A01FC0117821682838111
:100E600081FFCCC1CE0101963C01F6019381F701CF
:100E700093FD859193FF81917F01882309F4BAC185
:100E8000853239F493FD859193FF81917F018532FD
:100E900029F4B60190E00E94190CE7CF912C212C87
:100EA000312CFFE1F315D8F08B3279F038F4803231
:100EB00079F08332A1F4232D20611DC08D3261F0C1
:100EC000803369F4232D216016C0832D8260382E73
:100ED000E32DE4603E2E2AC0F32DF8601DC037FCE0
:100EE0002DC020ED280F2A3040F08E32B9F436FCA8
:100EF00081C1232D2064322E19C036FE06C08AE03F
:100F0000989E200D1124922E11C0EAE02E9E200DF5
:100F10001124222EF32DF0623F2E08C08C3621F4CE
:100F2000832D8068382E02C0883641F4F70193FD86
:100F3000859193FF81917F018111B3CF982F9F7D80
:100F40009554933028F40C5F1F4F9FE399830DC095
:100F5000833631F0833771F0833509F059C021C0F1
:100F6000F801808189830E5F1F4F88248394912C20
:100F7000530113C02801F2E04F0E511CF801A0806C
:100F8000B18036FE03C0692D70E002C06FEF7FEFC5
:100F9000C5010E94D00B4C018201F32DFF773F2E3B
:100FA00016C0280122E0420E511CF801A080B18039
:100FB00036FE03C0692D70E002C06FEF7FEFC50100
:100FC0000E94C50B4C01F32DF0683F2E820133FCCB
:100FD0001BC0822D90E088169906B0F4B60180E21D
:100FE00090E00E94190C2A94F4CFF50137FC85910A
:100FF00037FE81915F01B60190E00E94190C21102B
:101000002A9421E0821A91088114910471F7E8C0B2
:10101000843611F0893641F5F80137FE07C060814A
:101020007181828193810C5F1F4F08C06081718143
:10103000072E000C880B990B0E5F1F4FF32DFF76C8
:101040003F2E97FF09C090958095709561957F4FD1
:101050008F4F9F4FF0683F2E2AE030E0A3010E949F
:101060006E0C882E861845C0853731F4232D2F7ECF
:10107000B22E2AE030E025C0932D997FB92E8F360D
:10108000C1F018F4883579F0B5C0803719F0883789
:1010900021F0B0C0E92FE061BE2EB4FE0DC0FB2DE3
:1010A000F460BF2E09C034FE0AC0292F2660B22E7C
:1010B00006C028E030E005C020E130E002C020E1B9
:1010C00032E0F801B7FE07C06081718182819381AF
:1010D0000C5F1F4F06C06081718180E090E00E5F61
:1010E0001F4FA3010E946E0C882E8618FB2DFF77E0
:1010F0003F2E36FE0DC0232D2E7FA22E891458F4CC
:1011000034FE0BC032FC09C0832D8E7EA82E05C094
:10111000B82CA32C03C0B82C01C0B92CA4FE0FC05E
:10112000FE01E80DF11D8081803321F49A2D997E16
:10113000A92E09C0A2FE06C0B394B39404C08A2DA0
:10114000867809F0B394A3FC11C0A0FE06C0B214C7
:1011500088F4280C922C9B180EC0B21460F4B601CF
:1011600080E290E00E94190CB394F7CFB21418F407
:101170002B1802C0982C212CA4FE10C0B60180E3CD
:1011800090E00E94190CA2FE17C0A1FC03C088E7E2
:1011900090E002C088E590E0B6010CC08A2D867808
:1011A00059F0A1FE02C08BE201C080E2A7FC8DE2F3
:1011B000B60190E00E94190C891438F4B60180E35E
:1011C00090E00E94190C9A94F7CF8A94F301E80DED
:1011D000F11D8081B60190E00E94190C8110F5CFBD
:1011E000222009F442CEB60180E290E00E94190C60
:1011F0002A94F6CFF6018681978102C08FEF9FEF88
:101200002B96E2E10C94EB0C20FD09C0FC0123FDC0
:1012100005C022FF02C07383628351834083089517
:1012200044FD17C046FD17C0AB01BC01DA01FB014C
:10123000AA0FBB1FEE1FFF1F1094D1F74A0F5B1FB1
:101240006E1F7F1FCB01BA01660F771F881F991F82
:1012500009C033E001C034E0660F771F881F991F73
:101260003150D1F7620F711D811D911D08950F93AB
:101270001F93CF93DF938C01C8010E94DB0BEC011D
:1012800097FD08C00E94B10B892BB1F7B801CE01C0
:101290000E94550CCE01DF91CF911F910F910895BF
:1012A0008F929F92AF92BF92EF92FF920F931F93F4
:1012B000CF93DF938C01D62F7A01B22E0E94DB0BE5
:1012C0009C0133272B32310531F02D32310561F489
:1012D0008B2D8068B82ED15011F480E068C0C80111
:1012E0000E94DB0B97FDF9CFCB2DCD7F2B2D2073EB
:1012F00009F58033F9F4AA24AA94AD0E09F443C089
:10130000C8010E94DB0B97FD3EC09C012F7D332757
:101310002835310549F4C264D250A9F1C8010E94B0
:10132000DB0B97FF07C02FC0B6FE02C0C26001C032
:10133000C261DA2D812C912C540120ED280F283028
:1013400080F0C4FF04C0B8010E94550C19C02A30B7
:1013500040F0C6FFF8CF2F7D3FEE320F363098F7C2
:1013600027504C2FC501B4010E9410094B015C01AC
:10137000C260D15059F0C8010E94DB0B97FFDDCF4E
:10138000C1FD04C0AACF812C912C5401C7FF08C015
:10139000B094A09490948094811C911CA11CB11CC9
:1013A0002C2FB501A401C7010E94040981E0DF913F
:1013B000CF911F910F91FF90EF90BF90AF909F90B2
:1013C0008F900895A0E2B0E0E8EEF9E00C94D20C22
:1013D0005C01962E7A01F9018E010F5F1F4F6801A3
:1013E00080E2D8011D928A95E9F7D50113968C9079
:1013F00080E090E0612C712C30E061E070E083FCD3
:10140000259183FE21918F01522E211103C080E08E
:1014100090E092C02E3511F4009751F1432F50E027
:10142000481759073CF42D3559F12D3219F477201E
:1014300009F103C0772009F46AC0452D4695469509
:101440004695D601A40FB11D452D47708B0102C0F2
:10145000000F111F4A95E2F7A8015C91452B4C93B0
:10146000651459F0561410F45394E7CF5A94E5CF0D
:1014700031E004C07724739401C0712C0196BFCF72
:10148000772019F08E8180628E83311103C0882409
:10149000839417C0F6019E012F5D3F4F8081809598
:1014A00081932E173F07D1F7F2CFE114F10429F011
:1014B000D7018C93F70131967F019A94812C992062
:1014C000F9F0C5010E94DB0B97FD18C0FC01FF2756
:1014D00023E0F595E7952A95E1F7EC0DFD1D2081B8
:1014E00030E0AC014770552702C0359527954A95E5
:1014F000E2F720FDDACFB5010E94550C811087CFAD
:10150000E114F10411F0D7011C92C80115C0422F5B
:10151000469546954695D601A40FB11D422F4770BA
:101520008B0102C0000F111F4A95E2F7A8015C91E0
:10153000452B4C93622EA2CFA096EFE00C94EE0CBC
:10154000A0E0B0E0E6EAFAE00C94D20C6C01EB010A
:101550005A01FC0117821682512CF601E380FE012C
:10156000E3FC8591E3FE8191182FEF01882309F4B4
:10157000EEC090E00E94B10B892B21F0C6010E94C1
:101580003709EBCF153241F4FE01E3FC1591E3FE80
:101590001191EF01153281F4C6010E94DB0B97FD1A
:1015A000D4C0412F50E09C01332724173507A9F2FE
:1015B000B6010E94550CCBC01A3239F4E3FC1591E8
:1015C000E3FE1191EF0101E001C000E0F12C20EDFC
:1015D000210F2A3080F402606F2D70E080E090E0EF
:1015E00040E20E941009F62EFE01E3FC1591E3FE95
:1015F0001191EF01ECCF01FF03C0F11003C0A7C0B0
:10160000FF24FA94183619F01C3651F010C0FE0170
:10161000E3FC1591E3FE1191EF01183641F40860E7
:101620000460FE01E3FC1591E3FE1191EF0111232B
:1016300009F48DC0612F70E088E690E00E94BA0B3B
:10164000892B09F484C000FD07C0F50180809180DA
:10165000C50102965C0102C0812C912C1E3651F40A
:10166000F6014681578160E070E0202FC4010E949E
:10167000040973CF1336A9F401FD02C0FF24F394CB
:10168000C6010E94DB0B97FD60C08114910429F014
:10169000F4018083C40101964C01FA94F110F0CF5B
:1016A00050C01B3559F49E01A4016F2DC6010E9444
:1016B000E209EC01892B09F044C03EC0C6010E943A
:1016C000370997FD42C01F3661F128F4143639F10D
:1016D000193651F128C0133771F0153701F123C0C5
:1016E0008114910429F0F4016082C40101964C0137
:1016F000FA94FF2071F0C6010E94DB0B3C0197FDBC
:1017000008C00E94B10B892B59F3B601C3010E9496
:10171000550C81149104A9F0F401108212C00062EA
:1017200003C0006101C00064202FA4016F2DC60119
:101730000E945009811105C0F6018381807329F44C
:1017400006C000FD0ACF539408CF552019F0852D0F
:1017500090E002C08FEF9FEFCDB7DEB7EFE00C94C3
:10176000EE0C91110C94CC0C803219F089508550FC
:10177000C8F70895FC010590061621F00020D9F75E
:10178000C00108953197CF010895FC010590615083
:1017900070400110D8F7809590958E0F9F1F089587
:1017A000FC016150704001900110D8F78095909530
:1017B0008E0F9F1F0895CF93DF93EC012B8120FFA5
:1017C00033C026FF0AC02F7B2B838E819F81019619
:1017D0009F838E838A8190E029C022FF0FC0E88119
:1017E000F9818081082E000C990B009719F4206272
:1017F0002B831AC03196F983E8830EC0EA85FB85F6
:10180000099597FF09C02B81019611F080E201C074
:1018100080E1822B8B8308C02E813F812F5F3F4F59
:101820003F832E83992702C08FEF9FEFDF91CF91E7
:1018300008950F931F93CF93DF93FB01238121FD25
:1018400003C08FEF9FEF2CC022FF16C04681578147
:10185000248135814217530744F4A081B1819D0151
:101860002F5F3F4F318320838C93268137812F5FF9
:101870003F4F3783268314C08B01EC01FB010084AA
:10188000F185E02D0995892BE1F6D80116968D9109
:101890009C911797019617969C938E931697CE015D
:1018A000DF91CF911F910F910895FB01238120FFBC
:1018B00012C026FD10C08F3F3FEF930761F0828377
:1018C0002F7D20642383268137812150310937837E
:1018D0002683992708958FEF9FEF0895FA01AA278D
:1018E000283051F1203181F1E8946F936E7F6E5F63
:1018F0007F4F8F4F9F4FAF4FB1E03ED0B4E03CD011
:10190000670F781F891F9A1FA11D680F791F8A1FF3
:10191000911DA11D6A0F711D811D911DA11D20D05A
:1019200009F468943F912AE0269F11243019305D14
:101930003193DEF6CF010895462F4770405D419305
:10194000B3E00FD0C9F7F6CF462F4F70405D4A3352
:1019500018F0495D31FD4052419302D0A9F7EACF1A
:10196000B4E0A6959795879577956795BA95C9F749
:1019700000976105710508959B01AC010A2E06943C
:101980005795479537952795BA95C9F7620F731FF5
:10199000841F951FA01D08959927882708952F92C9
:1019A0003F924F925F926F927F928F929F92AF92EF
:1019B000BF92CF92DF92EF92FF920F931F93CF933C
:1019C000DF93CDB7DEB7CA1BDB0B0FB6F894DEBFD3
:1019D0000FBECDBF09942A88398848885F846E84F9
:1019E0007D848C849B84AA84B984C884DF80EE8043
:1019F000FD800C811B81AA81B981CE0FD11D0FB64C
:101A0000F894DEBF0FBECDBFED010895F894FFCF6F
:101A10000000E8018000000000005002B901E70169
:101A20009D021802F6010A022564004769766500E6
:101A300025643B25643A256C782125732A003038CB
:0A1A40002E30362E313939390000FE
:00000001FF
